:10000000C02B0020113600008DA20000FD3500003D
:10001000FD350000FD350000FD350000000000004A
:100020000000000000000000000000001934000083
:10003000FD35000000000000C5330000FD35000064
:100040007D3300007D3300007D3300007D330000F0
:100050007D3300007D3300007D3300007D330000E0
:100060007D3300007D3300007D3300007D330000D0
:100070007D3300007D3300007D3300007D330000C0
:100080007D3300007D3300007D3300007D330000B0
:100090007D3300007D3300007D3300007D330000A0
:1000A0007D3300007D3300007D3300007D33000090
:1000B0007D3300007D3300007D3300007D33000080
:1000C0007D3300007D3300007D3300007D33000070
:1000D0007D3300007D3300007D3300007D33000060
:1000E0007D3300007D3300007D3300007D33000050
:1000F0007D3300007D3300007D3300007D33000040
:1001000081F0004102E000BF83F0004330B54FEAC8
:1001100041044FEA430594EA050F08BF90EA020F35
:100120001FBF54EA000C55EA020C7FEA645C7FEAC8
:10013000655C00F0E2804FEA5454D4EB5555B8BFEB
:100140006D420CDD2C4480EA020281EA030382EA5C
:10015000000083EA010180EA020281EA0303362DEE
:1001600088BF30BD11F0004F4FEA01314FF4801CC1
:100170004CEA113102D0404261EB410113F0004FD3
:100180004FEA03334CEA133302D0524263EB43038A
:1001900094EA050F00F0A780A4F10104D5F1200E28
:1001A0000DDB02FA0EFC22FA05F2801841F1000183
:1001B00003FA0EF2801843FA05F359410EE0A5F157
:1001C00020050EF1200E012A03FA0EFC28BF4CF088
:1001D000020C43FA05F3C01851EBE37101F000453E
:1001E00007D54FF0000EDCF1000C7EEB00006EEB4B
:1001F0000101B1F5801F1BD3B1F5001F0CD34908D5
:100200005FEA30004FEA3C0C04F101044FEA44522B
:1002100012F5800F80F09A80BCF1004F08BF5FEAB2
:10022000500C50F1000041EB045141EA050130BD92
:100230005FEA4C0C404141EB0101013C28BFB1F5A4
:10024000801FE9D291F0000F04BF01460020B1FAEF
:1002500081F308BF2033A3F10B03B3F120020CDAC2
:100260000C3208DD02F1140CC2F10C0201FA0CF0A0
:1002700021FA02F10CE002F11402D8BFC2F1200C05
:1002800001FA02F120FA0CFCDCBF41EA0C019040BB
:10029000E41AA2BF01EB0451294330BD6FEA040404
:1002A0001F3C1CDA0C340EDC04F11404C4F12002EF
:1002B00020FA04F001FA02F340EA030021FA04F301
:1002C00045EA030130BDC4F10C04C4F1200220FA58
:1002D00002F001FA04F340EA0300294630BD21FA96
:1002E00004F0294630BD94F0000F83F4801306BF5C
:1002F00081F480110134013D4EE77FEA645C18BF50
:100300007FEA655C29D094EA050F08BF90EA020FE6
:1003100005D054EA000C04BF1946104630BD91EADE
:10032000030F1EBF0021002030BD5FEA545C05D1E1
:100330004000494128BF41F0004130BD14F5800420
:100340003CBF01F5801130BD01F0004545F0FE4194
:1003500041F470014FF0000030BD7FEA645C1ABFC9
:10036000194610467FEA655C1CBF0B46024650EA00
:10037000013406BF52EA033591EA030F41F400212C
:1003800030BD00BF90F0000F04BF0021704730B5B2
:100390004FF4806404F132044FF000054FF0000187
:1003A00050E700BF90F0000F04BF0021704730B548
:1003B0004FF4806404F1320410F0004548BF40421D
:1003C0004FF000013EE700BF42004FEAE2014FEA72
:1003D00031014FEA02701FBF12F07F4393F07F4F4D
:1003E00081F06051704732F07F4208BF704793F050
:1003F0007F4F04BF41F40021704730B54FF4607463
:1004000001F0004521F000411CE700BF50EA010265
:1004100008BF704730B54FF000050AE050EA01020E
:1004200008BF704730B511F0004502D5404261EB7E
:1004300041014FF4806404F132045FEA915C3FF4BF
:10044000D8AE4FF003025FEADC0C18BF03325FEA5C
:10045000DC0C18BF033202EBDC02C2F1200300FA0D
:1004600003FC20FA02F001FA03FE40EA0E0021FA32
:1004700002F11444BDE600BF70B54FF0FF0C4CF420
:10048000E06C1CEA11541DBF1CEA135594EA0C0FD2
:1004900095EA0C0F00F0DEF82C4481EA030621EA0D
:1004A0004C5123EA4C5350EA013518BF52EA033548
:1004B00041F4801143F4801338D0A0FB02CE4FF0FA
:1004C0000005E1FB02E506F00042E0FB03E54FF02A
:1004D0000006E1FB03569CF0000F18BF4EF0010E22
:1004E000A4F1FF04B6F5007F64F5407404D25FEA1E
:1004F0004E0E6D4146EB060642EAC62141EA5551D1
:100500004FEAC52040EA5E504FEACE2EB4F1FD0C12
:1005100088BFBCF5E06F1ED8BEF1004F08BF5FEA90
:10052000500E50F1000041EB045170BD06F0004642
:1005300046EA010140EA020081EA0301B4EB5C04EF
:10054000C2BFD4EB0C0541EA045170BD41F48011E7
:100550004FF0000E013C00F3AB8014F1360FDEBF0C
:10056000002001F0004170BDC4F10004203C35DAE8
:100570000C341BDC04F11404C4F1200500FA05F36B
:1005800020FA04F001FA05F240EA020001F000420C
:1005900021F0004110EBD37021FA04F642EB060182
:1005A0005EEA430E08BF20EAD37070BDC4F10C04AC
:1005B000C4F1200500FA04F320FA05F001FA04F270
:1005C00040EA020001F0004110EBD37041F100015C
:1005D0005EEA430E08BF20EAD37070BDC4F1200567
:1005E00000FA05F24EEA020E20FA04F301FA05F2CF
:1005F00043EA020321FA04F001F0004121FA04F277
:1006000020EA020000EBD3705EEA430E08BF20EA46
:10061000D37070BD94F0000F0FD101F00046400080
:1006200041EB010111F4801F08BF013CF7D041EA02
:10063000060195F0000F18BF704703F00046520006
:1006400043EB030313F4801F08BF013DF7D043EAD7
:100650000603704794EA0C0F0CEA135518BF95EA8D
:100660000C0F0CD050EA410618BF52EA4306D1D114
:1006700081EA030101F000414FF0000070BD50EA33
:10068000410606BF1046194652EA430619D094EABD
:100690000C0F02D150EA013613D195EA0C0F05D1A7
:1006A00052EA03361CBF104619460AD181EA0301FB
:1006B00001F0004141F0FE4141F470014FF00000B3
:1006C00070BD41F0FE4141F4780170BD70B54FF04E
:1006D000FF0C4CF4E06C1CEA11541DBF1CEA1355CE
:1006E00094EA0C0F95EA0C0F00F0A7F8A4EB0504B0
:1006F00081EA030E52EA03354FEA013100F08880A7
:100700004FEA03334FF0805545EA131343EA12636F
:100710004FEA022245EA111545EA10654FEA002624
:100720000EF000419D4208BF964244F1FD0404F5DD
:10073000407402D25B084FEA3202B61A65EB030539
:100740005B084FEA32024FF480104FF4002CB6EBF6
:10075000020E75EB030E22BFB61A754640EA0C0076
:100760005B084FEA3202B6EB020E75EB030E22BFB6
:10077000B61A754640EA5C005B084FEA3202B6EBF7
:10078000020E75EB030E22BFB61A754640EA9C00B6
:100790005B084FEA3202B6EB020E75EB030E22BF86
:1007A000B61A754640EADC0055EA060E18D04FEA44
:1007B000051545EA16754FEA06164FEAC30343EAE4
:1007C00052734FEAC2025FEA1C1CC0D111F4801FB1
:1007D0000BD141EA00014FF000004FF0004CB6E7AA
:1007E00011F4801F04BF01430020B4F1FD0C88BF49
:1007F000BCF5E06F3FF6AFAEB5EB030C04BFB6EB54
:10080000020C5FEA500C50F1000041EB045170BD46
:100810000EF0004E4EEA113114EB5C04C2BFD4EB73
:100820000C0541EA045170BD41F480114FF0000EF7
:10083000013C90E645EA060E8DE60CEA135594EA73
:100840000C0F08BF95EA0C0F3FF43BAF94EA0C0F76
:100850000AD150EA01347FF434AF95EA0C0F7FF4EB
:1008600025AF104619462CE795EA0C0F06D152EA3F
:1008700003353FF4FDAE1046194622E750EA410623
:1008800018BF52EA43067FF4C5AE50EA41047FF434
:100890000DAF52EA43057FF4EBAE12E74FEA410297
:1008A00012F5001215D211D56FF47873B3EB6252C2
:1008B00012D94FEAC12343F0004343EA505311F0E9
:1008C000004F23FA02F018BF404270474FF000007B
:1008D000704750EA013005D111F0004008BF6FF0B9
:1008E000004070474FF00000704700BF4A0011D22F
:1008F00012F5001211D20DD56FF47873B3EB62527A
:100900000ED44FEAC12343F0004343EA505323FA85
:1009100002F070474FF00000704750EA013002D1FA
:100920004FF0FF3070474FF00000704780F00040FC
:1009300002E000BF81F0004142001FBF5FEA4103B7
:1009400092EA030F7FEA226C7FEA236C6AD04FEAB7
:100950001262D2EB1363C1BFD218414048404140FC
:10096000B8BF5B42192B88BF704710F0004F40F4AE
:10097000000020F07F4018BF404211F0004F41F4CA
:10098000000121F07F4118BF494292EA030F3FD096
:10099000A2F1010241FA03FC10EB0C00C3F12003A9
:1009A00001FA03F100F0004302D5494260EB400038
:1009B000B0F5000F13D3B0F1807F06D340084FEAA3
:1009C000310102F10102FE2A51D2B1F1004F40EB98
:1009D000C25008BF20F0010040EA03007047490000
:1009E00040EB0000013A28BFB0F5000FEDD2B0FA9D
:1009F00080FCACF1080CB2EB0C0200FA0CF0AABFC0
:100A000000EBC25052421843BCBFD040184370475D
:100A100092F0000F81F4000106BF80F40000013263
:100A2000013BB5E74FEA41037FEA226C18BF7FEA3A
:100A3000236C21D092EA030F04D092F0000F08BF7C
:100A40000846704790EA010F1CBF0020704712F063
:100A50007F4F04D1400028BF40F00040704712F1A2
:100A600000723CBF00F50000704700F0004343F007
:100A7000FE4040F4000070477FEA226216BF08463D
:100A80007FEA23630146420206BF5FEA412390EA00
:100A9000010F40F4800070474FF0000304E000BFF6
:100AA00010F0004348BF40425FEA000C08BF7047A7
:100AB00043F0964301464FF000001CE050EA01026B
:100AC00008BF70474FF000030AE000BF50EA010280
:100AD00008BF704711F0004302D5404261EB41016D
:100AE0005FEA010C02BF84460146002043F0B64392
:100AF00008BFA3F18053A3F50003BCFA8CF2083AB7
:100B0000A3EBC25310DB01FA02FC634400FA02FCBF
:100B1000C2F12002BCF1004F20FA02F243EB0200C6
:100B200008BF20F00100704702F1200201FA02FC28
:100B3000C2F1200250EA4C0021FA02F243EB02001B
:100B400008BF20EADC7070474FF0FF0C1CEAD0525F
:100B50001EBF1CEAD15392EA0C0F93EA0C0F6FD020
:100B60001A4480EA010C400218BF5FEA41211ED0FE
:100B70004FF0006343EA501043EA5111A0FB0131EA
:100B80000CF00040B1F5000F3EBF490041EAD371BF
:100B90005B0040EA010062F17F02FD2A1DD8B3F13B
:100BA000004F40EBC25008BF20F00100704790F0AA
:100BB000000F0CF0004C08BF49024CEA502040EAFC
:100BC00051207F3AC2BFD2F1FF0340EAC2507047C2
:100BD00040F400004FF00003013A5DDC12F1190F00
:100BE000DCBF00F000407047C2F10002410021FA72
:100BF00002F1C2F1200200FA02FC5FEA310040F18A
:100C0000000053EA4C0308BF20EADC70704792F002
:100C1000000F00F0004C02BF400010F4000F013A3A
:100C2000F9D040EA0C0093F0000F01F0004C02BF35
:100C3000490011F4000F013BF9D041EA0C018FE7A4
:100C40000CEAD15392EA0C0F18BF93EA0C0F0AD0AA
:100C500030F0004C18BF31F0004CD8D180EA0100D0
:100C600000F00040704790F0000F17BF90F0004F69
:100C7000084691F0000F91F0004F14D092EA0C0F4B
:100C800001D142020FD193EA0C0F03D14B0218BFDE
:100C9000084608D180EA010000F0004040F0FE4024
:100CA00040F40000704740F0FE4040F440007047C0
:100CB0004FF0FF0C1CEAD0521EBF1CEAD15392EA3F
:100CC0000C0F93EA0C0F69D0A2EB030280EA010C2F
:100CD00049024FEA402037D04FF0805343EA1111C8
:100CE00043EA10130CF000408B4238BF5B0042F126
:100CF0007D024FF4000C8B4224BF5B1A40EA0C00CB
:100D0000B3EB510F24BFA3EB510340EA5C00B3EBFC
:100D1000910F24BFA3EB910340EA9C00B3EBD10FEA
:100D200024BFA3EBD10340EADC001B0118BF5FEA3C
:100D30001C1CE0D1FD2A3FF650AF8B4240EBC25065
:100D400008BF20F0010070470CF0004C4CEA502026
:100D50007F32C2BFD2F1FF0340EAC250704740F475
:100D600000004FF00003013A37E792F0000F00F067
:100D7000004C02BF400010F4000F013AF9D040EAE5
:100D80000C0093F0000F01F0004C02BF490011F479
:100D9000000F013BF9D041EA0C0195E70CEAD15371
:100DA00092EA0C0F08D142027FF47DAF93EA0C0F58
:100DB0007FF470AF084676E793EA0C0F04D14B023C
:100DC0003FF44CAF08466EE730F0004C18BF31F0EE
:100DD000004CCAD130F000427FF45CAF31F00043E8
:100DE0007FF43CAF5FE700BF42000ED2B2F1FE4F8E
:100DF0000BD34FF09E03B3EB126209D44FEA0023EA
:100E000043F0004323FA02F070474FF000007047B0
:100E100012F1610F01D1420202D14FF0FF30704751
:100E20004FF00000704700BF53B94AB9002908BF0E
:100E300000281CBF4FF0FF314FF0FF3000F06CB9BD
:100E4000ADF1080C6DE904CE00F006F8DDF804E021
:100E5000DDE9022304B070472DE9F047089E0D46F6
:100E600004468E46002B40F082808A42174646D9BF
:100E7000B2FA82F24AB1C2F1200105FA02F320FA75
:100E800001F1974041EA030E94404FEA1748230CC2
:100E9000BEFBF8FCB9B208FB1CEE43EA0E430CFBA8
:100EA00001F098420AD9FB180CF1FF3580F0168149
:100EB000984240F21381ACF1020C3B441B1AA4B2DD
:100EC000B3FBF8F008FB103344EA034400FB01F1E4
:100ED000A14209D93C1900F1FF3380F00181A14200
:100EE00040F2FE8002383C44641A40EA0C40002183
:100EF0001EB1D4400023C6E90043BDE8F08702B923
:100F0000FFDEB2FA82F2002A4FD1CB1B4FEA174E16
:100F10001FFA87F80121B3FBFEFC250C0EFB1C33E6
:100F200045EA034508FB0CF3AB4207D97D190CF1E8
:100F3000FF3002D2AB4200F2E7808446ED1AA3B242
:100F4000B5FBFEF00EFB105543EA054408FB00F824
:100F5000A04507D93C1900F1FF3302D2A04500F2A9
:100F6000D7801846A4EB080440EA0C40C0E78B4247
:100F700008D9002E00F0AF800021C6E90005084620
:100F8000BDE8F087B3FA83F100294BD1AB4202D31D
:100F9000824200F2B780841A65EB030301209E466B
:100FA000002EAAD0C6E9004EA7E7C2F1200C01FA34
:100FB00002F3974020FA0CF04FEA174E21FA0CFC8E
:100FC0001843BCFBFEF1050C0EFB11CC1FFA87F891
:100FD00045EA0C4501FB08F3AB4204FA02F409D9D7
:100FE0007D1901F1FF3C80F08B80AB4240F288809C
:100FF00002393D44EB1A85B2B3FBFEF00EFB103311
:1010000045EA034500FB08F3AB4207D97D1900F11F
:10101000FF3C71D2AB426FD902383D44EB1A40EA33
:10102000014178E7C1F1200C8B4022FA0CF71F43F5
:1010300020FA0CF405FA01F34FEA174E25FA0CF5E5
:101040001C43230CB5FBFEF91FFA87F80EFB19555C
:1010500043EA054509FB08FAAA4502FA01F200FA3B
:1010600001F308D97D1909F1FF3047D2AA4545D9C6
:10107000A9F102093D44A5EB0A05A4B2B5FBFEF0B7
:101080000EFB105544EA054400FB08F8A04507D9BB
:101090003C1900F1FF352DD2A0452BD902383C4434
:1010A00040EA0940A4EB0804A0FB02894C45C6466F
:1010B0004D4619D316D05EB1B3EB0E0264EB0504B6
:1010C00004FA0CFCCA404CEA0202CC40C6E90024F7
:1010D0000021BDE8F087314630460EE7AC46EDE62C
:1010E000184601E74345E6D2B8EB020E69EB070567
:1010F0000138E0E72846D3E760468FE78146BAE744
:10110000614677E708464BE7ACF1020C3D4415E732
:1011100002383C4426E700BF704700BF00000000D3
:101120002DE9F04724A7D7E900670FF29409D9E920
:101130000089DFF8B0A04FF0FF324FF0FF332248B4
:10114000224D07F011FB224B1B6840F6B830584384
:10115000FFF7A6FC5146FFF7ABFDFFF745FE80B257
:1011600028602868FFF71EF932463B46FFF784F9EE
:1011700042464B46FEF7CAFFFFF790FB154B28602F
:101180002A681B689A420FDD013C24EAE474642C4F
:10119000A8BF6424104BC4F164021A600F4B1C609A
:1011A0000F4807F09DFAC6E72A689342C8BF01348A
:1011B000EBE700BFAFF30080B29DEFA7C64BA7BF20
:1011C000EC51B81E850B61409C07002050070020A1
:1011D000E4070020B0000020E807002058070020A6
:1011E000B407002000C07F442DE9F047DFF80891E4
:1011F00039A7D7E900674C464FF0FF324FF0FF3375
:101200003748DFF8F88007F0AFFA364A0023A9F82C
:101210000030C246A8F80030154618460133092BA5
:1012200032F8131089B222F81010F6D12E4B1B8819
:101230005382002235F81210238801320B449BB2EE
:101240000A2A2380F6D123889BB2B3FBF2F32380D2
:10125000208880B2FFF7A6F832463B46FFF70CF92C
:10126000FFF744FB214980B2002208801346B4F8FE
:1012700000C0B1F800E035F812001FFA8EFE80B20F
:101280001EFA8CFC844518DDB4F800C0B1F800E00B
:1012900035F812001FFA8CFC1FFA8EFE80B2ACEB00
:1012A0000E0C844509DA35F812C0BAF80000604423
:1012B00080B20133AAF800009BB201320A2AD6D1CB
:1012C00023B1B8F8002092B2B2FBF3F3084A1360DE
:1012D000084807F005FA8FE79A9999999999B93FC3
:1012E00084070020BE0E0020E0070020D20E002060
:1012F000E40700209C070020D40E0020D60E00201A
:10130000014B01221A60704724070020014B012283
:101310001A60704728070020014B01221A607047AD
:101320002C070020014B01221A6070473007002073
:1013300012F4406F2DE9F047D0E901A9D0F81080F0
:1013400005460E46144610D093050ED419491A4A84
:101350001A484FF43B7308F0D8FD194808F0D5FD42
:1013600015484FF43B7108F0CDFCDAF80030012746
:10137000B7401F4224F480540ED112490E4A0F4840
:1013800040F2FD2308F0C1FD0F4808F0BEFD0A48F9
:1013900040F2FD2108F0B6FCD8F8003023EA070738
:1013A000C8F80070D9F80030224631462846BDE81A
:1013B000F04718474EB3000024B3000093B3000079
:1013C000B0B30000EBB3000029B4000043682DE97E
:1013D000F0411B688768D0F8108001268E401E42BD
:1013E00004460D460ED11049104A114840F29D2383
:1013F00008F08BFD0F4808F088FD0C4840F29D2155
:1014000008F080FCD8F800301E42BE69294620460C
:10141000B44618BF4FF40033BDE8F04108BF4FF4A5
:1014200080234FF4A0326047EBB3000024B30000E8
:1014300093B3000029B40000F0B51C4F1C4D1D4EA5
:1014400087B04FF0FF334FF0FF32384607F08CF98A
:101450001422002101A808F04CFF022330680493F5
:10146000CDE902350A238DF8143060B9124808F02E
:101470004CFD4FF0FF341148214608F046FD10485E
:1014800007F02EF9DDE7836801A95B6898470446F9
:1014900020B101460B4808F038FDECE72B88B3F586
:1014A000806FECD2084A1360E9E700BF6C070020A8
:1014B000BC0E0020E80600203BB400008AB4000007
:1014C000840700206AB40000E00700202DE9F04FF7
:1014D00087B0354805F0DEF928B9344808F015FD25
:1014E00007B0BDE8F08F0D214FF4D052FFF720FF79
:1014F000011E03DA2E4808F008FDF1E72D4805F03B
:10150000C9F904460028EBD0DFF8BCB04FF0FF3239
:101510004FF0FF33284807F027F9DBF80050642725
:101520007D43B5FBF7F5A36804AA5B680D2120464F
:101530009847029018B16FF004012048DBE7DDE91D
:10154000046AA6FB078907FB0A991D4A0023404647
:101550004946FFF769FC1B4B03904FF0FF324B45A8
:1015600008BF424502D26FF08501E6E7A5FB06679A
:1015700005FB0A77124A002330463946FFF754FC30
:10158000104A4FF0FF31BA4208BFB1420346EAD3D6
:10159000A268029900911568039A0D212046A84778
:1015A00001460028B2D0C8E7B3B40000BAB40000C6
:1015B000DBB4000007B50000B40700200DB5000043
:1015C00040420F003F420F00E8070020174B1A6807
:1015D00002F5FA721A601A68B2F57A7F144A06DBCD
:1015E0001168013111601968A1F57A7119601368E9
:1015F0003B2B104B05DD19680131196011683C392E
:1016000011601A680C493B2A04DD08683C3A013035
:1016100008601A600A68172A06DD08490A6801325C
:101620000A601A68183A1A60704700BF1C07002049
:101630006007002044070020380700202007002012
:1016400010B52E4805F026F904464FF488720B2198
:10165000FFF76EFE4FF488720C212046FFF768FEFC
:101660004FF4887218212046FFF762FE19214FF4CB
:1016700088722046FFF75CFE011E04DA2048BDE8B0
:10168000104008F042BC0B212046FFF79FFE0C21C2
:101690002046FFF79BFE18212046FFF797FE1921F1
:1016A0002046FFF793FE014608B11648E7E71649C2
:1016B000164B4B6020464FF400638B6008F01AFB1A
:1016C0001349144B4B6020464FF480538B6008F055
:1016D00011FB1149114B4B6020464FF080738B601A
:1016E00008F008FB0E490F4B4B6020464FF000738B
:1016F000BDE810408B6008F0FDBA00BFB3B4000035
:1017000032B5000059B50000EC06002001130000BE
:10171000F80600200D130000040700201913000034
:10172000100700202513000008B50B4808F0EDFB5A
:101730000A4808F0EAFB0A4808F0E7FB094808F005
:10174000E4FB094808F0E1FB084808F0DEFBBDE8CF
:101750000840074808F0D9BB90B50000B1B50000BB
:10176000CBB50000EBB5000006B600001FB60000C8
:1017700038B600002DE9F84F394F3A4C3A4D3B4E00
:101780003B48DFF8009101233B60002323602B607E
:10179000336008F0BAFB374808F0B7FBB8464FF0A3
:1017A000030A4F464FF00A0B00F0A8FFC9F80000EB
:1017B000C0B200F095FFD9F80030303B092BC9F8D2
:1017C000003006D82268BAF1010A0BFB023323600D
:1017D000EAD1274808F099FB274808F096FB4FF01C
:1017E00003094FF00A0A00F089FF3860C0B200F028
:1017F00077FF3B68303B092B3B6006D82A68B9F17C
:1018000001090AFB02332B60EDD1194808F07DFB7A
:101810001A4808F07AFB4FF003094FF00A0A00F06B
:101820006DFF3860C0B200F05BFF3B68303B092BB6
:101830003B6006D83268B9F101090AFB0233336014
:10184000EDD10B4808F061FB33682A6821680C4829
:1018500008F05BFB0023C8F80030BDE8F88F00BF3C
:1018600034070020380700204407002060070020CC
:10187000BBC5000045B600005FB600007DB60000A5
:101880009BB600005C0700202DE9F14F694E6A4FBE
:10189000DFF8DC81694C6A4800233360C8F8003007
:1018A0003B60236008F031FB664808F02EFBB2462F
:1018B0000325B9460A2600F021FF2060C0B200F0DF
:1018C0000FFF2368303B092B236007D8D8F800208E
:1018D000013D06FB0233C8F80030ECD10023584824
:1018E000236008F012FB584808F00FFB03250A2676
:1018F00000F004FF2060C0B200F0F2FE2368303B2D
:10190000092B236007D8D9F80020013D06FB0233DC
:10191000C9F80030ECD100234948236008F0F5FAFB
:101920004A4808F0F2FA03250A2600F0E7FE206094
:10193000C0B200F0D5FE2368303B092B236007D8E6
:10194000DAF80020013D06FB0233CAF80030ECD182
:101950003F4D404E404F3A4800232B6033603B6080
:10196000236008F0D2FA3D4808F0CFFA4FF0030B9D
:1019700000F0C4FE2060C0B200F0B2FE2368303B2D
:10198000092B236007D829680A2202FB0133BBF127
:10199000010B2B60ECD12A4808F0B7FA304808F068
:1019A000B4FA002323604FF0030B00F0A7FE206081
:1019B000C0B200F095FE2368303B092B236007D8A6
:1019C00031680A2202FB0133BBF1010B3360ECD119
:1019D00000231B48236008F098FA224808F095FA83
:1019E0004FF0030B00F08AFE2060C0B200F078FEDA
:1019F0002368303B092B236007D839680A2202FB91
:101A00000133BBF1010B3B60ECD10D4808F07DFACE
:101A1000DAF80030D9F80020D8F80010124808F0A1
:101A200074FA3B6832682968104801B0BDE8F04F8D
:101A300008F06BBA680700204C0700205C07002004
:101A4000BBC50000B3B60000D6B60000FEB600006D
:101A50003C070020480700206407002027B700004B
:101A600048B700006DB7000093B70000ADB70000A5
:101A700040070020F8B51348134C144E08F045FAFF
:101A8000134808F042FA0023236003250A2700F0D8
:101A900035FE3060C0B200F023FE3368303B092BC6
:101AA000336005D82268013D07FB02332360EED185
:101AB000044808F02AFA21680648BDE8F84008F012
:101AC00024BA00BFBBC50000540700205C070020FB
:101AD000C5B70000F6B70000F0B589B06848694C9A
:101AE00004F0D8FE206010B9674808F00EFA2068AC
:101AF000836866491B689847014610B1644808F03E
:101B000004FA644B0125DD60FFF79AFD00212A46A7
:101B1000614809F003F900212A46604809F0FEF8FF
:101B200000212A465E4809F0F9F800212A465D485E
:101B300009F0F4F8002600270024CDE90667CDE976
:101B40000354CDE90144584B584900944FF4806246
:101B5000574806F011FF574B1860574B57490094F0
:101B6000CDE90667CDE90354CDE901444FF4806225
:101B7000534806F001FF534B1860534B53490094F0
:101B8000CDE90667CDE90354CDE901444FF4806205
:101B90004F4806F0F1FE4F4B18604F4B4F490094F1
:101BA000CDE90667CDE90354CDE901444FF48062E5
:101BB0004B4806F0E1FE4B4B18604B494B4B0094F1
:101BC000CDE903544FF48062CDE90667CDE90144C5
:101BD0004748484D484C494E06F0CEFE484B1860E9
:101BE00000F09CFD474802F00BF8FFF79DFD00F068
:101BF00085FDC0B2287000F073FD2B78312B02D127
:101C0000FFF7B8FDF1E7322B02D1FFF73DFEECE71D
:101C1000332B02D1FFF72EFFE7E7342B0CD1204600
:101C200008F073F9384B394A39491B68126809685A
:101C3000384808F06AF9D8E7352B0AD1204608F071
:101C400064F9354B35491A68354B09681B683548C6
:101C5000EFE7362B12D1204608F057F9324A3349C4
:101C6000336812680968324808F04FF9314B324A3C
:101C700032491B68126809683148DAE709B0F0BDDB
:101C80000AB80000E806002010B800001CB30000ED
:101C900031B80000007000406C070020840700206D
:101CA0009C070020B4070020011E00002013002024
:101CB000A0020020CC0700203914000040170020AB
:101CC00020030020D0070020E9110000601B002045
:101CD000A0030020D407002021110000801F002055
:101CE00020040020D8070020A0230020CD140000ED
:101CF000A0040020D80E0020BBC50000680700200B
:101D0000DC07002060B800006007002044070020C6
:101D1000380700209BB6000050070020B0000020CC
:101D20005807002067B800004C070020400700203B
:101D300093B7000064070020480700203C070020FC
:101D4000ADB700002348244A002330B50360234B7D
:101D500012681B68934216DA214B1B689A4203DA19
:101D6000204B1B68036030BDFDD11F4B1A681F4B11
:101D70001B689A42F4DCF6D11D4B1A681D4B1B6898
:101D80009A42EDDAEFE7EED11B4A1168174A126862
:101D9000914209DA124909688B42E1DBE3D1124B27
:101DA0001B689A42DCDBE6E7DDD1144A1568114A6C
:101DB0001468A542D7DA0A4C2468A342D0DBD2D1FA
:101DC000094B1B689942CBDBCDD1094B19681368CD
:101DD0009942D6E7B00000203807002040070020D5
:101DE0003C0700205407002048070020440700203B
:101DF00064070020600700204C07002068070020CF
:101E00002DE9F84308F0A9FF4FF47A730A46A0FBC6
:101E1000030103FB0211C30B43EA4143CA0B13F551
:101E2000FA74414F42F10005DFF82C81D8F80030F8
:101E30000BB9FFF7CBFB3D4B1968002941D03C4E55
:101E40003268012A0ED14FF00009C3F80090394BD7
:101E5000394830221A7001F0D3FE384801F0D0FE24
:101E6000C6F80090FFF76EFF354806F039FC08F021
:101E700074FF4FF47A730A46A0FB030103FB0211BF
:101E8000C20B42EA4142CB0BA24273EB0501CDDA11
:101E9000A11A21EAE1714FF4004040F2E7384FF017
:101EA0000009C0FB01894FF47A720023404649467D
:101EB000FEF7BAFF06F0A8FA14F5FA7445F100052A
:101EC000B2E7204A204E1068012804BF1160186054
:101ED0003B68012B0DD133681C480A3B002BD8BF4F
:101EE000002333603168C1F1640108F00EF800236B
:101EF0003B60DFF86890D9F80030012B0ED13368D1
:101F000012480A33632BC8BF642333603168C1F1C0
:101F1000640107F0FAFF0023C9F800300C4B326867
:101F20001A600C48A1E700BF2C070020B400002075
:101F300024070020D80E002060B80000A3B80000DD
:101F40006C07002028070020B0000020B0B8000077
:101F5000E8070020B40700203407002030070020E5
:101F60002DE9F04F91B08B46029092461C46002519
:101F70009AF8000008B928465EE325280AF101070F
:101F800007D0029B594698470028C0F25583013577
:101F900010E2182200210AA808F0ABF99AF80130E3
:101FA000252B78D000229446164696461046394690
:101FB00017F8013B2B2B00F09D8000F29480202B22
:101FC00000F09B80232B00F09A8028B19DF8300010
:101FD00040F004008DF83000BEF1000F05D09DF8F0
:101FE000300040F008008DF830002EB19DF8300030
:101FF00040F010008DF83000BCF1000F05D09DF8C6
:10200000300040F020008DF830002AB19DF83020DB
:1020100042F040028DF830209DF8302002F044005C
:10202000442803D16FF386128DF830209DF83020BC
:102030002A2B42F080028DF830207BD19DF8312090
:1020400042F001024B1C8DF831201A782E2A9DF89F
:1020500031200CBF0121002161F341028DF83120B4
:1020600074D15A782A2A6AD0013300210A261846E8
:1020700010F8012BA2F13007092F40F28E809DF855
:1020800030200E91C2F3400040EAD17161F3410269
:102090008DF830205AE00AF102078DF833309DF8B0
:1020A0003130D90740F1498154F8049BB9F1000F50
:1020B00007DA9DF8302042F004028DF83020C9F193
:1020C00000095A0740F1428154F8048BB8F1000F1F
:1020D00080F241819DF831306FF341038DF831304A
:1020E0004FF0FF3837E12D2B0CD0302B7FF46DAF44
:1020F00001225CE74FF0010E59E7012657E74FF048
:10210000010C54E7012052E70CFB0202303A33463F
:102110001E4616F8010BA0F13007092FF4D9994299
:1021200093D09DF830100D92D20F62F341018DF8DB
:1021300030108AE70B4600224FF00A0CE8E79DF8C2
:10214000312042F004028DF8312002331F4617F887
:10215000012B6C2A41D025D8682A2BD06A2A46D078
:102160004C2A4CD01F4617F8012B9DF831308DF8C2
:102170003320782A00F2D980572A4DD8412A03D03B
:10218000453A022A00F2D1809DF83230042262F3EF
:1021900002038DF8323001239EE006FB0121303925
:1021A000034664E7742A26D07A2ADBD19DF83130C1
:1021B00006220DE05A78682A9DF8312006D10121C7
:1021C00061F3C6028DF831209F1CCCE71346022232
:1021D00062F3C6038DF83130C5E75A786C2A9DF852
:1021E000312001D10421EBE713460322F0E79DF8EB
:1021F00031300522ECE79DF831300722E8E7BDF8E1
:10220000303023F4F04323F0020343F4804343F0DF
:102210000203ADF83030A6E7A2F15801202900F200
:10222000848001A050F821F0ED2200002B23000053
:102230002B2300002B2300002B2300002B23000066
:102240002B2300002B2300002B23000089210000FA
:102250002B230000ED220000AD22000089210000A8
:1022600089210000892100002B230000AD220000FD
:102270002B2300002B2300002B2300002B23000026
:10228000F5220000ED220000112300002B230000A6
:102290002B230000112300002B230000ED2200005F
:1022A0002B2300002B230000ED2200009DF83210AC
:1022B000012003F0780360F30201402B8DF8321007
:1022C00002BF9DF8301041F001018DF83010632AF3
:1022D00031D1003B18BF01239DF83020C2F34001EB
:1022E0000B4363F341028DF83020D8E69DF832109D
:1022F0000220DEE79DF8322003F07803A3F14000CE
:10230000032161F3020243428DF832204341E3E7A7
:102310009DF83220032113F0780F61F302028DF84B
:10232000322014BF01230023D6E79DF8303043F05C
:1023300001038DF830300023CEE79DF93020002ACC
:10234000B4BFDDF834904FF0FF39BAE69B077FF554
:10235000C7AEDDF838809DF831200023CDE90D337C
:102360009DF8323003F00703012BC2F3C30236D1CC
:10237000D31E042B20D8DFE803F00307071F1F003C
:1023800054F8040BC11704E0073424F00704F4E800
:102390000201CDE90A019DF8303013F0030654D054
:1023A00002983B465246594607F0FEFC0028C0F210
:1023B00043810544BA46DBE554F8040B012A4FEA91
:1023C000E071CDE90A0105D19DF828300A93002378
:1023D0000B93E0E7022ADED1BDF92800D2E7022BF9
:1023E00023D1D31E042B13D8DFE803F0030A0A120B
:1023F000120020680A900021231D0B911C46CAE799
:10240000073424F00703F3E80201CDE90A01F5E7F8
:1024100054F8043B0A93012A4FF000030B93D3D0E6
:10242000022AB8D1BDF82830D0E7042B07D10734F1
:1024300024F00704F4E80201CDE90A01ABE7032B1D
:1024400004BF54F8043B0A93A5E79DF833007828AD
:10245000B0D8622822D825283FF493AD5828A9D1B6
:102460000DF126030093DDE90A0104AB0CAA07F085
:1024700050FC8246B8F1000F0DF126000CDB9DF8F0
:102480003020A0EB0A036FF3861298458DF83020B8
:1024900002D9A8EB03030D9380463DE0633815286D
:1024A00088D801A151F820F0292500008D250000D1
:1024B000B5230000B5230000B5230000B5230000BC
:1024C0008D250000B5230000B5230000B5230000D2
:1024D000B5230000EB250000B9250000BD25000054
:1024E000B5230000B523000001250000B52300003E
:1024F000B9250000B5230000B5230000B925000070
:10250000B8F1000FDDF828A00ADB4146504607F07D
:10251000D0FE0AEB00080026BAF1000F0CD149E703
:10252000504607F0BFFEF4E70A9B8DF810300026F6
:102530000DF111080DF1100AA8EB0A0306B10133E1
:102540009DF83220D0066BD5023352060D9948BF54
:102550000E9A0B4448BF9B18B9F1000F79DD9DF826
:102560003020A9EB0309C2F380030393530770D40F
:10257000500664D546B1029B59463046984700281C
:102580005ADB039B01351E46302359E01E0711D448
:1025900013F0100618BF2026DDE90A23002A73F184
:1025A0000001BFF65DAF524263EB4303CDE90A235E
:1025B0002D2655E72B26EFE7002651E70A9848B36A
:1025C0000DF1260300930CAA04AB002107F0A1FB38
:1025D000BDF8323003F0EF0343F4F04343F010034F
:1025E0008246ADF83230002644E70A9B072A3FF6C0
:1025F000E1AEDFE802F00D04060D08080D0D1D70B8
:10260000D8E61D80D6E62846E917C3E90001D1E6E1
:102610001D60CFE6DFF8C4800646A8F1050A8BE707
:10262000110748BF013390E7184603935946029BB0
:1026300098470028039B04DA11B0BDE8F08F2023EF
:102640004D444A46002AA5EB090109F1FF39EBDCAC
:102650000D4636B1029B5946304698470028EBDBC1
:1026600001359DF83230D90601D41A0706D5029BF0
:102670005946302098470028DEDB01359DF832307E
:10268000DB0607D59DF83300029B59469847002882
:10269000D2DB01350D9E2E44731B002B16DC0298F5
:1026A00043465246594607F07FFB0028C4DB0544E9
:1026B000A944A9EB0503002B7FF77CAE029B59468A
:1026C000202098470028B7DB0135F2E7029B5946E6
:1026D000302098470028AFDB0135DDE7C0B80000A7
:1026E00007B501228DF807000DF10701024807F038
:1026F000DFFC03B05DF804FBEC07002007B5012206
:102700000DF10701044807F0FCFC0028A8BF9DF864
:10271000070003B05DF804FBEC07002038B5104D4E
:10272000284608F099FAA8B10E48294600F0E8FDBD
:10273000044668B9AB681B6E7BB10B4909484FF47E
:10274000007207F087FD09490648402207F069FD3D
:10275000204638BD6FF01204FAE76FF08504F7E702
:10276000BCAE0000EC070020190F0020D90E00209D
:10277000B2F5802F2DE9F04106460D46174669D384
:102780003D493E4A3E4840F2A51307F0BEFB3D4896
:1027900007F0BBFB40F2A511384807F0B3FA043F3D
:1027A000EC1D3D4424F0070425F007052D1B172DD3
:1027B0004FEAD5070ED83449304A314840F2B513B4
:1027C00007F0A3FB314807F0A0FB2C4840F2B511FD
:1027D00007F098FAB7FA87F8C8F124084FEA880892
:1027E000346008F107060023F608E360731CBB425F
:1027F000A7600ED92649214A214840F2C51307F0A7
:1028000084FB224807F081FB1C4840F2C51107F009
:1028100079FA04F11002A0440023904529D17200F6
:1028200042F00102628004EBC601BA1B5000238013
:102830004880611924F8366004EBC7074B80625367
:102840007B8843F001037B8031462046BDE8F041A0
:1028500007F0C6BA042AA2D80E49084A08484FF41D
:10286000D67307F052FB094807F04FFB4FF4D671BF
:1028700092E742F8043BD0E78DB90000C1B80000F0
:1028800093B30000A3B90000F4B90000DBB9000065
:102890001DBA0000BAB90000436803F00303022B1D
:1028A00070B504460E46816010D0032B04D0012B76
:1028B0000FD10025284601E0056800200023636051
:1028C00010B1314604F082FC284670BD0068002536
:1028D000F4E7064A06490748452307F016FB034874
:1028E000452107F00FFA0025E7E700BF48BA0000CE
:1028F00091B3000093B30000014807F069B800BF2E
:10290000B8B0000008B5D0B14368042B11D1002243
:102910000368BFF35B8F53E8001F012903D143E82D
:1029200000200028F7D1BFF35B8F074808BF10468F
:1029300008BD3BB1006804F00BFB0020F8E76FF422
:10294000E040F5E70148F3E7E98FFFFFEA8FFFFF7B
:1029500010B5044618B90D4B0D485B68984761687F
:1029600008290DD031F004030AD011F0020108D07B
:102970000848214604F088F900232360002363609F
:1029800010BD2068142207F0B4FCF7E7D001002046
:102990006BBA00004008002010B5044618B9164B69
:1029A00016485B6898476368042B23D0082B21D016
:1029B000CBB92368BBB912484FF0FF324FF0FF3359
:1029C000214604F0F5F808B923681BB90A4B0D48F5
:1029D0005B68984720681422002107F08AFC63682E
:1029E00043F002036360206808F063F9636843F012
:1029F0000103636010BD00BFD00100206BBA00006E
:102A00004008002091BA000008B508B34368042BC1
:102A100010D101220368BFF35B8F53E8001F002928
:102A200003D143E800200028F7D1BFF35B8F0BD11F
:102A3000002008BD53B100684FF0FF324FF0FF3364
:102A400004F086F90028F3D00348F2E70348F0E7E2
:102A50006FF4E040EDE700BFE98FFFFFEA8FFFFF73
:102A600008B5064906484023142208F006F9BDE8D7
:102A700008400449044807F00DB800BF6008002072
:102A800040080020D0B00000C0B000002DE9F04F99
:102A9000B0F81C9085B019F0080F0446039222D0BC
:102AA00001290CBF49F0100949F02009A0F81C9039
:102AB0001434204606F04CF868B99F4A9F49A04854
:102AC000AC2307F022FA9F48214607F01EFA9A48E5
:102AD000AC2107F017F9039B83F31188BFF36F8FC5
:102AE00005B0BDE8F08F984FDFF8548209F0070970
:102AF000022906D1204607F0B2F90028D8D00128D3
:102B000068D1D4F818B0A38BBBF1000F0ADA002605
:102B1000256823F00703C4E9006643F00103A3839B
:102B2000019627E003F00702511F012934D8002144
:102B300023F00703062A25689BB2C4E900110CD1D3
:102B40008D422A4638BF0A462AB1E18B126801310C
:102B5000E183002AF8D143F00203A383204607F063
:102B60007EF906460028DBD0A38B43F02003A38325
:102B700000230193A38B03F007024A45029203D07E
:102B8000A268002A40F0F0801DB9019A002A00F0E6
:102B900036814FF00009E9E0042A0ED123F0070343
:102BA0009AB2A283204607F05AF9054618B142F0BE
:102BB0002002A28300250195DCE74046634940F2EC
:102BC0001B133A4607F0A1F940F21B11384607F0F3
:102BD00099F8EFE7032835D1B9F1000F0BD05C4924
:102BE00040464FF4AB733A4607F08FF94FF4AB71A0
:102BF000384607F087F823685BB95649404640F2EB
:102C000057133A4607F081F940F25711384607F05A
:102C100079F823691B6801935BB94F4940464FF42B
:102C2000AD733A4607F071F94FF4AD71384607F0CD
:102C300069F8A38B23F0070343F00603A383002561
:102C4000AB4697E7042832D1B9F1020F0BD04349C4
:102C5000404640F25D133A4607F057F940F25D11E5
:102C6000384607F04FF8E38B5BB13D4940464FF4DF
:102C7000AF733A4607F049F94FF4AF71384607F0A1
:102C800041F823695B6801935BB93349404640F2E0
:102C900061133A4607F039F940F26111384607F0FE
:102CA00031F8A38B23F0070343F00403C6E705289C
:102CB00032D1B9F1010F0BD02A4940464FF4B2731B
:102CC0003A4607F022F94FF4B271384607F01AF885
:102CD00023685BB91F49404640F265133A4607F046
:102CE00014F940F26511384607F00CF823699B6827
:102CF00001935BB9184940464FF4B4733A4607F064
:102D000004F94FF4B471384606F0FCFFA38B23F0AE
:102D1000070343F0050391E70C4940F26B133A4671
:102D2000404607F0F2F8002540F26B11384606F0F5
:102D3000E9FF019584E700BF61BB000087BB00008D
:102D400093B300009EBB0000BEBA000091B3000028
:102D5000E0BA0000ECBA00000FBB000026BB000088
:102D60003CBB00004BBB00004FF0010943F00803DF
:102D700004F1140AA383504605F0EAFE68B93A4A02
:102D80003A49AC23404607F0C0F83948514607F0AD
:102D9000BCF83548AC2106F0B5FF039B83F31188DE
:102DA000BFF36F8FB9F1000F38D1002D4BD1019BCC
:102DB00013B13049204698474FF02003EFF3118BB1
:102DC00083F31288BFF36F8F5046CDF80CB005F037
:102DD000B1FE68B9244A28498123404607F095F896
:102DE0002648514607F091F81F48812106F08AFFD6
:102DF000504605F0BDFEA38B23F00803A383A38BED
:102E0000DA0628D523F01003A3830121B4F81C901F
:102E100009F0070900297FF46BAE49E6A168002993
:102E2000C3D00B68029A002B38BF002399464B6829
:102E300020461E465B46B047B9F1000FB5D0D9F821
:102E400000304946EEE72946029A2D685B46204647
:102E500007F021F8A9E713F020011EBF23F020039B
:102E6000A3830221D2E700BF61BB000087BB000043
:102E70009EBB0000812E0000B3BB0000C8BB000059
:102E8000F8B504460D4600F114064FF02003EFF3A9
:102E9000118783F31288BFF36F8F304605F04AFE27
:102EA00068B90C4A0C490D48812307F02EF80C48EC
:102EB000314607F02AF80748812106F023FF304603
:102EC00005F056FEA5613A4620460121BDE8F840CE
:102ED000FFF7DCBD61BB0000B3BB000093B3000093
:102EE000C8BB00002DE9F04704460F4606F0E9FF95
:102EF000051E5EDB04F114094FF02003EFF3118A85
:102F000083F31288BFF36F8F484605F013FE68B94C
:102F1000384A39493948812306F0F7FF384849468D
:102F200006F0F3FF3348812106F0ECFE484605F039
:102F30001FFEE38BA28B4FF6FF718B4202F0070658
:102F400050D0022E24D10133E38335464FF00108DF
:102F5000484605F0FDFD68B9264A2A492748AC23B2
:102F600006F0D3FF2848494606F0CFFF2148AC21A0
:102F700006F0C8FE8AF31188BFF36F8FB8F1000F17
:102F800017D0002332463946204606F084FF10E071
:102F9000930701D0062E0FD100233B606368F3B97D
:102FA000C4E900773546FEB9524602212046FFF7B4
:102FB0006DFD2846BDE8F087052E18D0012E0BD0F8
:102FC00012490E48124A40F2C91306F09EFF1048FB
:102FD00040F2C91106F096FE6FF0040504E01F6090
:102FE0006760DFE76FF00A054FF00008B0E76FF0A9
:102FF0008505F9E761BB0000B3BB000093B3000097
:10300000C8BB000087BB00009EBB00004BBB00009C
:10301000BEBA00002DE9F84305464FF02003EFF358
:10302000118683F31288BFF36F8F234805F082FD6A
:1030300068B9224A22492348812306F066FF1E49C7
:10304000214806F062FF1D48812106F05BFE1A4808
:1030500005F08EFD1D4B1C68002C38BF00249CB170
:103060001B4FDFF878804FF00C09D4E90132002DB6
:1030700008BF13462BB198F8142009FB02F2B85C84
:1030800098472468002CF0D10B4805F061FD68B921
:103090000A4A10490B48AC2306F037FF06490E4890
:1030A00006F033FF0548AC2106F02CFE86F31188AC
:1030B000BFF36F8FBDE8F883600D002061BB000097
:1030C000B3BB000093B30000C8BB0000640D002038
:1030D000700D002087BB00009EBB0000480E002042
:1030E00000F01F0301229A400A4BBFF35B8F400997
:1030F00003EB800050E8003F43EA020140E8001C77
:10310000BCF1000FF6D1BFF35B8F1A4214BF012050
:10311000002070477C0D002030B51D4B1D7DBFF396
:103120005B8F05F01F0301229A401A4B690985B095
:10313000D04303EB810353E8001F01EA000443E896
:10314000004CBCF1000FF6D1BFF35B8F114217D0DA
:10315000114C0C2202FB054207CA01AB83E80700B1
:103160000E4A7AB193E8070007F0DFF80020FFF776
:1031700051FF0C236B430022E118E250C1E9012208
:1031800005B030BD82F31188BFF36F8FEEE700BF4B
:10319000480E00206C0D0020700D00202BA30000B5
:1031A0002DE9F041374BDFF8F4801C7D88B00746ED
:1031B0002046FFF795FF60B96E463A4621463046F5
:1031C00006F0B0FE96E807000C2505FB048585E8AF
:1031D00007000C23634308EB030218F8030065099A
:1031E00004F01F06C8B37B1C0FD0D2F808E02648B5
:1031F000264A4FF4004C00210023ECFB0E01FDF7A2
:1032000013FE0121381A05F075FE04F043F9012080
:10321000FFF700FFBFF35B8F1D4B0122B24003EBB2
:10322000850353E8001F114343E800100028F8D13C
:10323000BFF35B8F0C2303FB048494E8070005AB0A
:1032400083E80700134A1AB193E8070007F05AF819
:10325000FFF762FF04F062FE01200F4ABFF35B8FAD
:103260000123B340DB4302EB850555E8002F1A40EC
:1032700045E800210029F8D1BFF35B8F08B0BDE815
:10328000F08100BF480E00203F420F0040420F0077
:103290006C0D002005A300007C0D0020700D0020A7
:1032A0000B6801330B60014B1B681847D8000020E6
:1032B000014B1860704700BFD800002007B50B46CF
:1032C000002102460191034801A9FEF749FE03B01F
:1032D0005DF804FBA132000008B54FF02002EFF3C7
:1032E000118382F31288BFF36F8F00F0DFFC034875
:1032F00006F00BFE00F02AF8FCE700BFE0BB000080
:10330000024610B5084699B100244FF0FF33C2E9D8
:10331000134393628B681160C2E90744C2E9114408
:10332000546243B11B6E33B104499847204610BD27
:103330006FF01200FBE71846F9E700BFF99F0000A5
:10334000014910220A60704710ED00E072B640405B
:1033500080F31188BFF36F8FBFF34F8F30BF62B61A
:10336000BFF36F8F704700BF72B6494081F3118879
:1033700020BF80F3118862B6704700BF01B572B6F6
:103380000B4A906900281EBF0021916107F06EFC76
:1033900062B6EFF30580A0F110004FEAC0000549C6
:1033A000014409C99847BDE80140034908470000A6
:1033B000480E002004AF0000E135000030BFFFF7E9
:1033C000FDBF00BF12498A684FF030001044EFF390
:1033D000098C80E8F01F202080F31288BFF36F8FE4
:1033E0000C4F4FF00066CA698A603E60906F002300
:1033F000936780F3118804B5104600F0E7FABDE842
:10340000044002F1300090E8F01F8CF30988704707
:10341000480E002004ED00E01EF0040F0CBFEFF397
:103420000880EFF30980816911F8021C0229FFD09E
:1034300001B506F023FF01BD43B2002B08DB0122DA
:1034400000F01F0002FA00F05B09024A42F8230074
:10345000704700BF00E100E0054B420900F01F008B
:1034600053F82220012303FA00F01040704700BFF8
:1034700000E100E070B54C1C072C05460E460FD944
:10348000114A12491248592306F03FFD11483146AE
:1034900007232A4606F039FD0B48592106F032FC75
:1034A0006BB2002BACBF03F160430B4B4FEA4414EB
:1034B000B8BF05F00F05E4B2AABF03F561435C5540
:1034C00083F8004370BD00BF09BC00003FBC000092
:1034D00093B300005ABC000014ED00E00B4A08B59D
:1034E0000B4B22F07F029A60BFF34F8FBFF36F8FB9
:1034F000D3F8882022F47002C3F8882003F0A0FAE1
:1035000006F0C6F900F0F6F903F0A4FA0000000096
:1035100000ED00E0094A0A4993680968D96709493A
:1035200098674B6843F080534B60002383F3118806
:10353000BFF36F8F9368D86F704700BF480E0020AD
:1035400090B2000000ED00E042F8203C009B42F801
:103550001C3C0A49019B42F8183C029B42F8143C6F
:1035600021F001014FF0807342F8043C42F8081C3E
:103570000023203A02658367704700BF2F9F000039
:103580000B4A0346906890B113F1160F806E05D078
:10359000A0F120029A4206D8834204D281422CBF75
:1035A0000021012100E00021002908BF0020704710
:1035B000480E002008B5094B98600D46144600F0EF
:1035C00005FA204685F30988002163B681F3118846
:1035D000BFF36F8F0022002306F0A9FC480E0020E5
:1035E000044B9968D869884203D003494FF0805250
:1035F0000A607047480E002004ED00E0EFF30880F9
:10360000EFF3098101B5724600F0AEF801BD00BFCD
:10361000002080F31488BFF36F8F07F0DDFB0020DC
:103620000D490860BFF34F8F0C4880F3088800F005
:103630007DF9202080F3118809484FF40261401879
:1036400080F30988EFF314800221084380F3148883
:10365000BFF36F8FFFF742FF94ED00E0C02B002017
:10366000402D0020234B70B515469A6A9A6A9A6AD3
:10367000044690071AD5586B9A6A120616D519B1E6
:103680009A6A22F080029A629A6A9A6A9A6AD606BE
:103690000FD49B6A99070CD40024164A936A43F00E
:1036A000FF03936200232B70204670BD6FF015005E
:1036B000EAE7104E73681A05EED52146FFF760FF62
:1036C000044618B180F309880224E6E7B36ADB06F2
:1036D000E2D5094A09490A4840F2491306F015FCA7
:1036E000084806F012FC044840F2491106F00AFBB3
:1036F000D3E700BF00ED00E09ABC0000D4BC00009E
:1037000093B300001EBD00000D4B9A6A9A6A9A6A34
:10371000920508D59A6B9A6A120404D518B19A6A70
:1037200022F400429A62064B9A6A9A6AD20558BFFE
:103730009A6A9A6A002042F47F429A62087070473F
:1037400000ED00E0074B9A6A9A6A9A6A9A6A9A6A46
:103750009A6A9A6A6FEA02426FEA12429A620020FB
:10376000704700BF00ED00E070B5544B5C688AB054
:103770000D46C4F30804002686F31188BFF36F8F4B
:1037800002F07F43B3F17F4F08D102F00C03082B06
:1037900004D012075CBF054601267DB9484A494955
:1037A000494840F2F23306F0B0FB484806F0ADFB62
:1037B000434840F2F23106F0A5FA002500238DF8C7
:1037C0000730E31E032B72D8DFE803F002696D496E
:1037D0003A4BDC6A14F0020469D1DA6A002A18DB79
:1037E000DB6A5B004ED5AB6933F8022C4DF60273F1
:1037F0009A420DD003F1604303F626631B780BB3A6
:103800000DF1070201212846FFF72CFF044600E0D6
:103810002C689DF807309BB92022294602A806F0A3
:103820005DFD099B002E44D0C3F3080222B96FEA64
:1038300053236FEA4323099302A9204606F01CFD97
:103840000AB070BD224B1B782BB10DF1070101208E
:10385000FFF75AFFDAE71F4B1B889BB213B1FFF744
:1038600071FFD3E71C49164A174840F2C32306F0FC
:103870004CFB1A4806F049FB40F2C321104806F001
:1038800041FAC6E714490E4A0F4840F2C72306F032
:103890003CFB134806F039FB40F2C721EEE70DF17F
:1038A00007020021AFE70DF107010020D0E7002457
:1038B000AFE723F4FF7323F00103BCE700ED00E062
:1038C0009ABC000041BD000093B3000054BD00004D
:1038D00029ED00E02AED00E091B3000092BD000068
:1038E000B6BD0000024A536943F0100353617047AC
:1038F00000ED00E0044800232021C2180133302BE2
:1039000082F80013F9D1704700E100E0064A11681F
:103910000023C1F3072118468B4200D17047936002
:1039200010610133F8E700BF90ED00E008B572B612
:10393000002383F31388FFF7E9FF144B4FF0FF32A6
:10394000C3F88020C3F88420C3F88820C3F88C20F3
:10395000C3F89020C3F89420C3F89820C3F89C20A3
:10396000C3F88021C3F88421C3F88821C3F88C21CF
:10397000C3F89021C3F89421C3F89821C3F89C217F
:1039800062B6BFF34F8FBFF36F8F08BD00E100E059
:10399000064B9B68834207D1EFF3058323B1044AAA
:1039A000536843F08053536004F07CBD480E002000
:1039B00000ED00E0024B034A0348012100F068B823
:1039C0000000042000000020E4B00000826E054BDF
:1039D000203A1A60044A2021C3E901121846012145
:1039E00000F07EB8800D002000000B15F0B51E4FD2
:1039F00000268E4201DB1046F0BD446884B353B10B
:103A000004F1FF3C14EA0C0F18D11F2C16D90568DD
:103A10001CEA050F12D1202C0568D0F808C0D2B2DC
:103A20000FD9B4F1004F0ED8013CB4FA84F4C4F1BC
:103A30001F046400072A4CEA040406D96FF015023B
:103A4000D9E70824F6E73E24F4E725F01F051543DF
:103A500045F0100544F00104BA60FD6001323C619C
:103A600001360C30C5E700BF90ED00E0034B0522A6
:103A70005A60BFF34F8FBFF36F8F704790ED00E038
:103A8000BFF35F8F014B00225A60704790ED00E05A
:103A900038B50E4D01232A780C46FFF7A7FF287092
:103AA000163011D140F21113094A0A490A4806F0AA
:103AB0002CFA2146094806F028FABDE838400448A7
:103AC00040F2111106F01EB938BD00BF19110020D7
:103AD000E6BD000091B3000093B300001DBE0000DE
:103AE00010B5124A002312780C46FFF77FFF10F141
:103AF000160F08D00E4B0022072800DD10BD98607D
:103B00001A610130F8E70B4A0B490C484FF49873DF
:103B100006F0FBF921460A4806F0F7F9BDE8104027
:103B200004484FF4987106F0EDB800BF1911002059
:103B300090ED00E0E6BD000091B3000093B30000FB
:103B400049BE0000254910B50C68082C13D94FF464
:103B5000A473234A2349244806F0D7F923480822AE
:103B6000214606F0D2F91E484FF4A47106F0CAF8B7
:103B70004FF0FF3010BDFFF783FF48681C4900225B
:103B8000944200F10C0019D11A4B1C70FFF76EFF24
:103B90000B68C3F30723082B0ED01749104A1248AD
:103BA0004FF4D47306F0B1F9144806F0AEF90C489E
:103BB0004FF4D47106F0A6F80020DBE78A6050F8D5
:103BC0000C3C23F01F03134343F01003CB6050F869
:103BD000043C43F001030B610132D1E7F0B0000077
:103BE000E6BD000091B3000093B3000076BE000074
:103BF00090ED00E019110020AABE0000FABE0000FE
:103C00000FB407B504AB022153F8042B0448019309
:103C1000FEF7A6F903B05DF804EB04B0704700BFEF
:103C2000A1A20000014B1860704700BFDC0000201B
:103C30000239012902D8034B1B6818474FF0FF30A7
:103C4000704700BFDC0000204FF02003EFF311812C
:103C500083F31288BFF36F8F0F4A0123C2F84035F8
:103C60004FF08042C2F878350C4A1268082A08D111
:103C70000B4A1268052A04D80A48825C0AB10A4A2B
:103C800013604FF080430122C3F8802581F311882F
:103C9000BFF36F8F0020704700E00140300100103B
:103CA000340100102ABF0000380600404FF0804366
:103CB000C0B2C3F81C05BFF34F8F0549054BCA6856
:103CC00002F4E0621343CB60BFF34F8F00BFFDE708
:103CD00000ED00E00400FA0520B1034B800143F041
:103CE00001031847704700BFB0B00000054A012328
:103CF000C2F8003508B1D36070471360024A136000
:103D0000704700BF0070004004700040087970B533
:103D100000F01F04072C1FD80B78092B1CD8DFE8F4
:103D200003F006060606061B051E1B2005234A781F
:103D3000032A18D0042A0FD100254A8844F20A0623
:103D4000B24244D011D844F20306B2423BD044F20E
:103D50000506B24239D0D2B36FF0150032E0062327
:103D6000E5E70723E3E70125E7E744F21406B2425B
:103D70002FD044F22806B2422DD044F20F06B242B0
:103D8000EAD10322C0F340101B0243EA005343EA86
:103D9000053343EA0243220102F1804202F5E04288
:103DA0000020C2F81835230103F1804303F5E043F6
:103DB0008A79C3F81425C3F81005084B1C444B79C5
:103DC00084F8A83070BD0022DCE70122DAE7022285
:103DD000D8E70422D6E70522D4E700BF0000002080
:103DE000F7B50546406810B96FF015009CE030F05B
:103DF000FF02F9D1574C584F114620FA02F313F045
:103E0000010333D0BB1893F8A8C0BCF1000FEBD06E
:103E100004EB021E6E7CDEF81835003E18BF01264A
:103E200023F0807343EA0663CEF8183502F151039C
:103E30001B01013144F803C0C9B20132082ADCD1A8
:103E40002B7C083B062BCFD801A252F823F000BFF1
:103E5000353F0000E93D0000773E0000E93D0000ED
:103E60002D3F0000E93D0000313F000002F1510606
:103E70003601A351E1E70122364B0129C3F8F025B1
:103E80006A7C59D9002AAFD1C3F8F4252A684B00BF
:103E900012B1928902FB0333EA689A4256D32D4B42
:103EA000AA68C3F82C262F46C3F830160FCF2A4C29
:103EB00004F17C060FC63B6833602B68002626673A
:103EC000002B3CD00FCB04F1900585E80F00E5678F
:103ED000A4F8A06098B3BFF35B8F54E8003F44E8B8
:103EE0000062002AF9D1BFF35B8F1C48D4F89060C0
:103EF0001B4A4FF4004500210023E5FB0601FCF7B7
:103F000093FF0022CDE90001002304F1080005F031
:103F100011FA94F87830BBB912484FF0FF324FF0E5
:103F2000FF3304F021FC206F03B0F0BD0222A3E7B1
:103F30000322A1E700229FE7082AA5D954E794F8B5
:103F40008E00FFF7D3FEE4E70020EDE76FF00B00F3
:103F5000EAE700BF00700040000000203F420F0071
:103F600040420F005800002070B50C4616460D4D1B
:103F70004FF0FF324FF0FF3305F1400004F0F4FB47
:103F80000123204685F878306E67FFF729FF95F802
:103F90007830044603B110B1034804F0A1FB204679
:103FA00070BD00BF00000020400000200D4B10B588
:103FB00000241C601B680C4B1C601B680B4B1222FE
:103FC000C3F804230720FFF737FA22460121072010
:103FD000FFF750FA0648836C13B9403004F080FBB9
:103FE000002010BD047100401071004000700040BE
:103FF00000000020344B1A6810B5002A55D000226A
:104000001A601B68314C324B01211960C3F8F82447
:10401000E36FDBB3D4F8943043B1B4F8A02004F1DB
:104020007C019847012814D0022829D0B4F8A03088
:10403000B4F89C209A4223D90133A4F8A030254B30
:10404000D3F82C26D3F8341689B202EB4102C3F818
:104050002C26D4F890302BB994F88E00BDE810408F
:10406000FFF744BEBFF35B8F54E8003F5A1E44E89D
:1040700000210029F8D1BFF35B8F012BECDC10BDD0
:10408000D4F8903013B1144806F079FE94F87830E3
:104090004BB1606F10B1002103F098F80F48BDE8F4
:1040A000104004F01DBB0E48F9E70E4B19680029BB
:1040B000E5D01A60064A1B680123136042F8083CE9
:1040C00042F8043CDBE700BF047100400000002020
:1040D00008700040007000400800002040000020F0
:1040E000580000201071004038B50C460C4D4FF0C0
:1040F000FF324FF0FF3305F1400004F035FB0023A1
:10410000204685F878306B67FFF76AFE95F87830BF
:10411000044603B110B1034804F0E2FA204638BD6A
:1041200000000020400000202DE9F041104C071B4A
:10413000C7F347174FF00C0808FB07F8064608F1CD
:1041400048000D462044402106F011F9011E09DB0C
:10415000084B4444C4E91035074B53F83730BDE8E9
:10416000F041184730462B46BDE8F041184700BFE4
:104170009C0D0020D1A3000038B1000038B5CCB2AE
:10418000012C054609D9094909480A4A792305F04D
:10419000BCFE0848792105F0B5FD2B690C2104FB14
:1041A0000134A06C00F0070038BD00BF6DBF0000F7
:1041B00093B3000030BF0000F8B5CCB2012C076902
:1041C000054616460BD918491848194A40F24D13AE
:1041D00005F09BFE164840F24D1105F093FD4FF09F
:1041E0002003EFF3118283F31288BFF36F8F0C2348
:1041F00003FB0471896C11F0C00101D08E4210D113
:1042000003FB047301219964002082F31188BFF33A
:104210006F8F28B9696801EBC40463689847002070
:10422000F8BD4FF0FF30F0E76DBF000093B3000022
:1042300030BF000070B50D460649411A04464911C9
:1042400005484022FFF7B8FF2B4601462046BDE84F
:10425000704018479C0D00205CAE0000002270B535
:10426000012104461046FFF705F90020FFF7E4F8A6
:104270000F4801F02DFA0F4B984215D101F04CFA7E
:1042800026690D49304605F02BFE00280BDB012581
:10429000B5642469084904F1200005F021FE0028D6
:1042A00001DB6565002070BD6FF00400FBE700BF17
:1042B000F14200000000AD0B48B1000001460C23A4
:1042C00009484B4370B5C418D4E91056002248334E
:1042D0002264184406F069F82DB132462B46034893
:1042E000BDE87040184770BD9C0D00205CAE00001A
:1042F000012808B506D0032808D0A8B9104B9B6C3C
:104300005B071BD1BDE80840FFF7D8BF0D490E4A37
:104310000E4840F25E2305F0F8FD40F25E21BDE854
:104320000840094805F0EEBC0649074A074840F234
:10433000622305F0EAFD40F26221F0E708BD00BF0C
:104340009C0D002091B3000030BF000093B300002B
:1043500008B54FF02003EFF3118183F31288BFF308
:104360006F8F124A136843F0020013F001031060CC
:104370000CD04FF08042D2F80C34D2F80C2413F059
:10438000010303D00A4806F010F8012381F31188D5
:10439000BFF36F8F23B1BDE808400020FFF78EBF49
:1043A000BDE80840012001F0D7B900BFF40D00209E
:1043B000E40D0020094BBFF35B8F53E8002F22F080
:1043C000020143E800100028F7D1BFF35B8FD30749
:1043D00002D4012001F014BA704700BFF40D002090
:1043E0007FB500220123CDE9022304ABCDE90433DC
:1043F000094ACDF800D06B46CDF804D005F0FAFF9D
:10440000002805DB4FF480420023684604F0ACF935
:1044100007B05DF804FB00BFEFA300002DE9F843EF
:104420004949BFF35B8F0546012251E8003F41E84F
:1044300000200028F9D1BFF35B8FA3B9434944485A
:104440004B60CB608A60FEF74DFD00280BDA4149D6
:104450004148424A4FF4087305F057FD3F484FF476
:10446000087105F04FFCADB36B1E012B56D8012D22
:1044700007D14FF08043D3F81C3403F00303012B22
:1044800028D006F05BFC044618B9354B1B78002B8E
:1044900052D14FF02003EFF3118683F31288BFF35C
:1044A0006F8F01242F4FDFF8C480DFF8C4904FF0E6
:1044B0008042D2F81834D2F81824D2030CD503F075
:1044C0000303012B01D0012D06D10CB386F3118813
:1044D000BFF36F8FBDE8F883ACB13046FEF744FF01
:1044E0004FF08042D2F81835002BE0D1396800290E
:1044F000DDD03B603B680123C2F81835C8F8803135
:10450000C9F80030D3E70021212003F07DFFE7E761
:104510004FF080430222C3F80423DBE712490E4820
:104520000E4A40F2322305F0F0FCBDE8F8430B4898
:1045300040F2322105F0E6BB4FF080430222C3F87F
:1045400008230646AEE700BFF80D00208C0D0020C2
:10455000BC0D002091BF000093B3000030BF0000ED
:104560005A1100200401004091B3000000E100E076
:10457000080000400A4B70B5C6B21B6804463046BE
:10458000984701280AD00A2C064D03D128680D212E
:1045900005F04BFF2868314605F047FF204670BD07
:1045A000E0000020FC0D002008B5084B084818600A
:1045B00006F052FB38B10748FFF734FB0548FEF719
:1045C00077FE002008BD6FF01200FBE7FC0D002015
:1045D000BCAE00007545000070B5056916460C4676
:1045E00061B92249224A2348242305F08EFC22483F
:1045F00005F08BFC1E48242105F084FB636863B939
:104600001E491B4A1B48252305F07FFC1C4805F06A
:104610007CFC1748252105F075FB6B685BB1002217
:104620009C4213D123685AB9AA686B60944200D1A6
:10463000AB600023236076B9002070BD0B46EFE726
:104640001360AB689C4208BFAA60F2E719681A467B
:104650000029F3D13EB16B682360A8686C60002824
:10466000EAD1AC60E9E76FF01500E6E7CDBF0000E6
:10467000A0BF000093B30000D6BF0000E5BF00005C
:10468000F7BF000043092DE9F04703D0012B36D0D6
:10469000BDE8F0871B4F3B695C68002CF8D02568AB
:1046A000DFF86C80DFF86C90DFF86CA000F01F0082
:1046B0000126002D06FA00F638BF0025A3681E4229
:1046C00014D0636863B9494645234246504605F015
:1046D0001CFC0D4805F019FC4521404605F012FB75
:1046E000D4E901322146324038469847002DCFD0D8
:1046F0002B68002B38BF00232C461D46DEE7034FF6
:10470000C9E700BF74AE0000F7BF00008CAE000028
:10471000A0BF00000EC0000093B300007FB540684A
:10472000057B01F01F04B2F5005F44EA45144FF029
:10473000000504D1204601F0FBFB002054E0B2F557
:10474000804FCDE9025551D1B3F5003F0CBF042392
:1047500005238DF80830836823FA01F111F0010177
:1047600055D1B2F5A03F52D166094AD04FF6FF733A
:10477000012E08BF194604F01F05E940CA070BD4F3
:104780002B492C482C4A40F2292305F0BEFB2A482D
:1047900040F2292105F0B6FA6EB1012E34D0274936
:1047A0002448254A40F22E2305F0AFFB224840F270
:1047B0002E2105F0A7FA4FF0A04305F5E07553F858
:1047C0002530DB0723D40DF107052946204601F0EB
:1047D000D9FA1B4B984219D1284601F033FB194BEB
:1047E000984213D06FF00B0004B070BDB3F5C02F2A
:1047F00005D0B3F5003F0CBF02230123A9E7032333
:10480000A7E74FF0FF31B6E70F4BD6E7039500233C
:10481000194602AA204601F097F90A4B984204D1A2
:104820000121204601F014FB87E76FF00400DBE76D
:104830004DC0000093B300001AC0000091B3000007
:104840000400AD0B0000AD0B0003005010B501F0EB
:10485000E9FA044668B901F0BDFA084B98420AD15A
:104860000748214601F088FA224605210620FEF776
:1048700001FE002010BD6FF00400FBE70000AD0B4F
:10488000854600002DE9F04347683B7B01F01F059A
:1048900085B00E4645EA43151446CAB902A9284612
:1048A00001F070FA0446284601F064FB484B984238
:1048B00004D06FF0040005B0BDE8F083844205D158
:1048C0009DF8080001F0B8FAA042F2D10020F2E70A
:1048D0004FF000090DF103013046CDE9029901F0D6
:1048E00051FA4B46804602AA4946284601F02CF967
:1048F000374B984202D06FF01500DCE7804503D1BA
:104900009DF8030001F098FAA3054ED5314B324AC9
:10491000234093423AD00CD8062B14D004D893B13C
:10492000022BE8D104230EE0B3F5801FE3D101236D
:1049300009E02A4A93422BD0B3F5A00F2AD0B3F551
:10494000800FD8D102238DF8043084F48073C3F330
:104950000023E0068DF8053054BFC4F34013032351
:1049600021058DF8063017D57B68012101FA06F67E
:10497000C3F80865002201A9284601F08DF9144BFF
:10498000984214BF6FF01500002094E70723DAE780
:104990000523D8E70323D6E7620541BF7B680121E1
:1049A00001FA06F6C3F80C65E4E7E3064FF00003EE
:1049B00054BFC4F3401403241A4601A928468DF8B5
:1049C000044001F0C1F8024B98423FF47FAF92E7F8
:1049D0000000AD0B0600F0000600100002004000D1
:1049E00002480021C2E90001002070470024F400C1
:1049F00002464068126938B500F10803043200F13C
:104A00000C04194613F9015B002DB4BF00254FF4C7
:104A10000045A34222F8025BF4D100231A4601F0BC
:104A20006BFC034B984214BF6FF00F00002038BDA1
:104A30000000AD0B0268530910B504462CD0012BC1
:104A40004FF6FF7318BF002302F01F02D340DB07AD
:104A50000BD414491448154A40F2292305F055FA9D
:104A6000124840F2292105F04DF9236803F01F0296
:104A70005B0922600DD0012B11D00D490A480B4A69
:104A800040F22E2305F041FA084840F22E2105F0AD
:104A900039F94FF0A04010BD4FF0FF33D4E705487F
:104AA000F9E700BF4DC0000093B300001AC000003A
:104AB00091B3000000030050F0B54B79012B26D0D4
:104AC000032B21D110268B79032B1DD1CC790CB16E
:104AD000012C19D10A7912B1022A15D10E220B68C4
:104AE0004568B3F5164F2D6865D02DD8B3F5165F20
:104AF00064D016D8B3F5966F62D00AD8B3F5967F16
:104B000061D0B3F5167F61D06FF0850052E00026CA
:104B1000D9E7B3F5166F5CD0B3F5965FF4D1374B98
:104B20003CE0B3F5E14F57D007D8B3F5615F55D0FE
:104B3000B3F5964FE8D1324B30E047F61227BB422F
:104B4000E2D14FF4000329E0B3F5613F48D013D818
:104B5000B3F5963F47D009D84DF6C027BB4244D0A5
:104B6000B3F5614FD0D14FF46B0317E0B3F5E13FDC
:104B7000CAD14FF0EB7311E0B3F5612F38D008D8EC
:104B8000204FBB4237D0B3F5E12FBDD14FF0E863E2
:104B900004E01D4FBB42B7D14FF08053C5F8243518
:104BA000036903C9344322430433C5F86C2583E801
:104BB00003000020F0BD4FF41D03EFE7134BEDE7BA
:104BC0004FF49E23EAE74FF4A033E7E74FF41C339A
:104BD000E4E74FF41D23E1E70D4BDFE70D4BDDE785
:104BE0004FF06C73DAE70C4BD8E74FF46503D5E769
:104BF0004FF07063D2E74FF08063CFE700B013004F
:104C000000A04E0090D0030040420F00005027004B
:104C100000C0750000F03A0000903A0102685309A4
:104C200010B504462CD0012B4FF6FF7318BF00239C
:104C300002F01F02D340DB070BD414491448154A75
:104C400040F2292305F061F9124840F2292105F0CC
:104C500059F8236803F01F025B0922600DD0012B75
:104C600011D00D490A480B4A40F22E2305F04DF9A8
:104C7000084840F22E2105F045F84FF0A04010BD45
:104C80004FF0FF33D4E70548F9E700BF4DC00000FF
:104C900093B300001AC0000091B30000000300505D
:104CA0002DE9F04315464268D0F810901768127A43
:104CB00087B0044688469AB14F4A5049504840F25E
:104CC0007F3305F022F94F4805F01FF94A4840F2BA
:104CD0007F3105F017F86FF0850007B0BDE8F0836D
:104CE000D9F8101091F8D220002A40F08180B3F555
:104CF000E87FCB67D2BF5C23052293FBF2F3C1F8B8
:104D000080300023C1E91885C1E91A330B67436875
:104D10005B68DA0639D591F8D160B6B3AE4228BFE8
:104D20002E4640463246CC3105F0D8FAAD1BB04491
:104D30002BD1D9F8102092F8D1309B1B314682F844
:104D4000D130204605F0EEFCD9F81060376E77B10F
:104D50001422294601A805F0CCFA04230DEB030127
:104D600020468DF80430029705F0D5FC3566002109
:104D7000142201A805F0BDFA052301A920468DF8EB
:104D8000043005F0C8FC0020A7E70023C7F83485ED
:104D9000C7F83855C7F81031D7F81021C7F84C318B
:104DA000D7F84C31D9F81030012283F8D22063684B
:104DB0005B68DB0619D54FF02003EFF3118183F315
:104DC0001288BFF36F8F23691B692BB1D3F8C820FA
:104DD00042F00202C3F8C82063681B680822C3F8C7
:104DE000002581F31188BFF36F8F01233B60CAE771
:104DF0006FF00F0071E700BF77C0000091B30000B3
:104E000093B30000ABC000002DE9F743D0F8048055
:104E10000769D8F800400023C4F8003538604568B9
:104E2000EB680646581C13D001A80193FFF7F6FE65
:104E3000019A01239340C0F80835EB68019301A85B
:104E4000FFF7ECFE019B03F5E073032240F82320FB
:104E50002B69591C11D02A7F0193002A01A814BF85
:104E60004FF003094FF00009FFF7D8FE019B03F54F
:104E7000E0734FEA890240F823206B695A1C13D073
:104E800001A80193FFF7CAFE019A01239340C0F8DD
:104E900008356B69019301A8FFF7C0FE019B03F57C
:104EA000E073032240F82320AB69581C11D06A7FBD
:104EB0000193002A01A814BF4FF003094FF0000925
:104EC000FFF7ACFE019B03F5E0734FEA890240F85F
:104ED0002320D5E903122B68C3F80C15C3F8142559
:104EE000D5E90512C3F808153169C3F81025043156
:104EF0003046FFF7E1FD814600286FD1D8F8043035
:104F0000990719D507F11A0001F032F9414B98427F
:104F10007CD1B87EC30003F1804303F5F83304F17C
:104F20000C0204F59071C3F81015C3F814253A4A21
:104F300001238340C2F804353B69002B52D07368CB
:104F400035691B68286935490422C3F80423012206
:104F5000C0F8C820C3F804130821C3F80015D3F81B
:104F60004C11A1B15A60D3F844211AB9D3F82421C5
:104F7000002AF8D00022C3F84C21D3F84C11C3F812
:104F80001021D3F81011C3F84421D3F84431244937
:104F90000022883005F0E7FE2B69C3F8BC50286971
:104FA00020490022283005F0DEFE2B69DD65D8F8A7
:104FB00004309A075CBF4FF48072C4F80423DB0608
:104FC00044BF4FF48003C4F8043318370023C4F8F7
:104FD0004475C4F848350123A360E360484603B034
:104FE000BDE8F0830823C4F8003598F80830002B9A
:104FF000DDD1C4F81031D4F8103107F11903C4F829
:1050000034350123C4F838352360D0E76FF0040944
:10501000E4E700BF0000AD0B00F0014010020A0001
:10502000CBA80000BBA900002DE9F34106461D46B0
:1050300073683769D3F800C04FF02003EFF311888D
:1050400083F31288BFF36F8F3C69E36843B188F341
:105050001188BFF36F8F6FF00F0002B0BDE8F081D1
:105060004FF4800EE260A160CCF804E301F0604CE4
:10507000BCF1005F2CD1C4E90412304605F03BFBC3
:105080003B69002832D1012283F8D42088F31188AB
:10509000BFF36F8FFB7A012B18D16B1C16D01A4807
:1050A0001A4A3C6925EAE5754FF4004600210023C1
:1050B000C6FB0501FBF7B8FE283402460B4600206C
:1050C0000021CDE90001204604F034F90020C4E7B6
:1050D000E2682362002AD0D0082A28BF082204F1FF
:1050E00018006261206105F0F9F8C6E7002283F834
:1050F000D4204FF0FF32C3F8C4203046D3E9041265
:1051000005F09EFCC2E700BF3F420F0040420F0087
:10511000F8B5066904460F4605F010FE10B9284B95
:105120001B785BBB4FF02003EFF3118183F31288F0
:10513000BFF36F8F20460D4605F0DDFAC8B1336925
:105140005BB1DA684AB1D3F8C420002A05DA626894
:105150001268D2F84C25C3F8C4203146012201F868
:10516000187F204605F06CFC85F31188BFF36F8F24
:10517000F8BD81F31188BFF36F8FD3E76425204614
:1051800005F0B9FA48B9012005F0D1FC013DF6D18E
:105190000021212003F038F9F0E74FF02003EFF36E
:1051A000118583F31288BFF36F8F204605F0A3FAB1
:1051B0000028D2D185F31188BFF36F8FE8E700BFD5
:1051C0005A110020194970B5044622F07F4608683C
:1051D000C1E90023A6F50013101AB3F5400F4FF0F4
:1051E00000050AD2124B19680A060B0A92191149D6
:1051F00043F10003C1E90023012503F0CBFEA30026
:1052000003F1804303F58833D3F84025B2420BD134
:105210001DB94FF40002C3F84025074B4FF480300E
:1052200000FA04F4C3F8444370BD00BF3805002001
:10523000300E0020200500200010014010B5012391
:105240008340114ABFF35B8FDC4352E8001F01EA41
:10525000040C42E800CEBEF1000FF6D1BFF35B8F25
:105260004FF4803202FA00F002F1804202F58052DF
:10527000C2F80803BFF35F8FBFF36F8F0B4214BFF9
:105280000120002010BD00BF2C0E00200123124A77
:10529000BFF35B8F834052E8001F194342E8001CB4
:1052A000BCF1000FF7D1BFF35B8F0C4A4FF4803392
:1052B0008340C2F804330A4BBFF35B8F1B68BFF314
:1052C0005B8F23FA00F0C30742BF064B4FF4003256
:1052D000C3F80021704700BF2C0E002000100140D1
:1052E000280E002000E100E00D4B1B68190A18068B
:1052F000BFF35F8F0B4BD3F80435C01841F10001A9
:10530000B3F5801F0AD2084BD3E90023994208BFA6
:10531000904203D210F1807041F10001704700BF4C
:10532000300E002000100140200500202DE9F04F34
:1053300085B016461F460546FFF780FF0190FFF730
:10534000D3FFB94208BFB0427FD2B6EB000867EB8B
:10535000010900234FF080724B4508BF4245C0F061
:105360008580444B03EB0513D3E902239F4208BF1A
:10537000964254D04FEA85094FF4803B09F18049A9
:1053800005F150080BFA05F209F588394FEA88084B
:105390001FFA88F80292384AD9F8400526F07F4370
:1053A00008F1804808F588381C469346D2F804A5D1
:1053B000A0EB0A0020F07F402AF07F410128C9F8C5
:1053C000401505D10393132005F0C9FC2A4A039B1D
:1053D00002990AF1020CA4EB0C0020F07F40B0F51A
:1053E000000F88BF64460020C8F80000D8F800000D
:1053F000CBF8441324F07F40C9F84005DBF80405DE
:10540000824506D0201A023820F07F40B0F5000F08
:1054100019D8E41A24F07F44321947F10003154CDF
:10542000290104EB0510C0E902230E9A0F9B62507C
:1054300043600024019B13B12846FFF727FF204655
:1054400005B0BDE8F08F2046B0E701230B4ABFF35B
:105450005B8FAB4052E8001F194342E80010002860
:10546000F8D1BFF35B8F32463B46D8E76FF01504A7
:10547000E0E700BF2805002000100140280E0020B2
:1054800073B5194B194D00244FF0FF304FF0FF3129
:10549000C5F80845C3E902014FF48033C5F8043369
:1054A000134B02264FF400320121C5F8046311208A
:1054B000C3F880212246FDF7DDFF1120FDF7BCFF78
:1054C0000C4A012313600C4A2B6013600B4B0C4AEF
:1054D0000093019400232046FFF728FF3046FEF793
:1054E0009DFF204602B070BD28050020001001403D
:1054F00000E100E0081001402C0E0020C551000022
:10550000FFFF7F002DE9F743344CD4F804339A07AA
:1055100009D5334B1A6832B100221A60314A1B6830
:105520001368013313604FF02003EFF3118283F30C
:105530001288BFF36F8FD4F80433DB0312D5BFF3A7
:105540005B8F294B53E8001F21F0010043E8000660
:10555000002EF7D1BFF35B8F244B002936D1196899
:10556000002933D1002382F31188BFF36F8F53B327
:10557000FFF7BAFE06464FF02003EFF3118083F3E6
:105580001288BFF36F8F1A4BD3E90289494508BFD0
:1055900046454FF000021ED34FF0FF364FF0FF3765
:1055A000D3E90015C3E902671A604FF48033C4F8E9
:1055B000483380F31188BFF36F8F21B100954246C5
:1055C0004B460020884703B0BDE8F08300211960F6
:1055D0001B680123C7E71146EBE700BF001001403D
:1055E00004110140300E0020280E0020401101401F
:1055F00028050020144B13B5B0F1FF3F08BF184633
:10560000441E002C1EDD9C42A8BF1C46FFF76CFE0A
:105610000E4B0F49D3E90023801AB0F5000F28BFC5
:1056200000240130044408480091844228BF044605
:1056300012194FF00000019043F10003FFF776FECE
:1056400002B010BD0024E1E7FFFF7F003805002015
:10565000C551000008B5FFF747FE024B1B68C01A92
:1056600008BD00BF3805002008B578B101281CD05E
:10567000144A154915484FF44F7304F046FC11487D
:105680004FF44F7104F03EFB00200DE031B14FF0BC
:105690008043D3F8183403F003030B604FF08043CA
:1056A000D3F81804C0F3004008BD31B14FF0804377
:1056B000D3F80C3403F001030B704FF08043D3F8A0
:1056C0000C04EFE7D2C0000091B3000093B30000D8
:1056D00010B5044648B90A490A480B4ABD2304F0EC
:1056E00014FC0948BD2104F00DFB084B1A7922B9BE
:1056F000012207481C609A8010BD0648FCE700BFE5
:1057000043C1000093B3000006C10000340E002026
:105710000000AD0B0C00AD0B08B50B4B1B794BB962
:105720000A490B480B4AD62304F0EFFB0948D6215F
:1057300004F0E8FA0020FDF78FFE18B9BDE8084034
:10574000FDF77ABE08BD00BF340E002051C1000035
:1057500093B3000006C10000224B1B7913B5044629
:105760005BB921492148224A4FF4897304F0CDFBEB
:105770001F484FF4897104F0C5FA74B1012C27D089
:105780001B4A1C4919484FF4A27304F0BEFB184889
:105790004FF4A27104F0B6FA16E001A92046FFF713
:1057A00063FF4FF0804388B1019A012A0ED1C3F8FC
:1057B0001825114B00221A601B684FF0804302220B
:1057C000C3F8042301229A6002B010BD0022EEE764
:1057D0000A4B00221A601B684FF08043C3F8044351
:1057E0001C60F1E7340E002051C1000093B30000AB
:1057F00006C1000091B30000040100400001004018
:1058000037B52F4D2A7904465AB92E492E482F4ACA
:1058100040F24B1304F079FB2C4840F24B1104F09A
:1058200071FA7CB1012C28D029492748274A40F237
:10583000671304F06AFB254840F2671104F062FA2E
:1058400003B030BD4FF080430222C3F80823C3F8F1
:10585000044103F5827301221B681E4B42F210744F
:105860001A6000210846FFF7FFFE0028E8D001205B
:1058700005F05DF9013CF4D1E2E74FF080430022EE
:10588000C3F80843C3F8002103F580731B68124B6B
:105890001C608DF8074042F210740DF107010120E1
:1058A000FFF7E2FE10B900236B71C9E79DF807000E
:1058B0000128F8D105F03BF9013CEED1F3E700BF38
:1058C000340E002051C1000093B3000006C1000057
:1058D00091B300000C00004004000040164B07B5D7
:1058E0001A686AB100221A601B684FF080430122D7
:1058F000C3F80823114B587910B95A711B6898479F
:105900000F4B1A686AB10020186001A91B68FFF7E5
:10591000ABFE019A4FF0804332B90122C3F818253B
:105920009A6003B05DF804FB0222C3F80823034B1E
:1059300001201B689847F4E700010040340E002066
:105940000401004070B501250368B3FA83F2202AF0
:10595000C2F11F0414D0BFF35B8F05FA04F223EAEF
:10596000020250E8006F9E4204D140E8002CBCF1D6
:10597000000FF6D1BFF35B8FE6D102480C7070BD0B
:105980000148FCE70000AD0B0200AD0B0368CB4003
:10599000DB0710B515D4012303FA01F10368BFF347
:1059A0005B8F41EA030250E8004F9C4204D140E87B
:1059B000002CBCF1000FF6D1BFF35B8FEED1024893
:1059C00010BD0248FCE700BF0000AD0B0400AD0BAA
:1059D000054B083033F8100000F02200A0F122033C
:1059E00058425841704700BF4401002070B500F193
:1059F00008030C4C34F81330DA0505460E4607D57B
:105A0000C3F3432304EBC30254F83330526898477E
:105A1000A3682BB1E26831462846BDE870401847BC
:105A200070BD00BF44010020194B083010B533F899
:105A30001020D1051DD5C2F3432122F4F85223F8DA
:105A4000102003F11004002034F8022B12F4807FA0
:105A500003D0C2F3432291420BD001303028F3D15E
:105A6000002243F831200B48FFF790FF0A4B984281
:105A700000D110BD09490A480A4A4FF4997304F04D
:105A800044FABDE8104007484FF4997104F03AB960
:105A900044010020B80100200000AD0BD3C100007C
:105AA00093B300006FC1000038B50A4C00F108053F
:105AB00034F815309A0606D55B0B074A03F5A27336
:105AC000002142F82310FFF7AFFF002324F8153020
:105AD00038BD00BF440100200060004010B50446FE
