:10000000402B0020F9300000A39C0000E5300000E8
:10001000E5300000E5300000E530000000000000A1
:10002000000000000000000000000000012F0000A0
:10003000E530000000000000AD2E0000E5300000BB
:10004000652E0000652E0000652E0000652E000064
:10005000652E0000652E0000652E0000652E000054
:10006000652E0000652E0000652E0000652E000044
:10007000652E0000652E0000652E0000652E000034
:10008000652E0000652E0000652E0000652E000024
:10009000652E0000652E0000652E0000652E000014
:1000A000652E0000652E0000652E0000652E000004
:1000B000652E0000652E0000652E0000652E0000F4
:1000C000652E0000652E0000652E0000652E0000E4
:1000D000652E0000652E0000652E0000652E0000D4
:1000E000652E0000652E0000652E0000652E0000C4
:1000F000652E0000652E0000652E0000652E0000B4
:1001000081F0004102E000BF83F0004330B54FEAC8
:1001100041044FEA430594EA050F08BF90EA020F35
:100120001FBF54EA000C55EA020C7FEA645C7FEAC8
:10013000655C00F0E2804FEA5454D4EB5555B8BFEB
:100140006D420CDD2C4480EA020281EA030382EA5C
:10015000000083EA010180EA020281EA0303362DEE
:1001600088BF30BD11F0004F4FEA01314FF4801CC1
:100170004CEA113102D0404261EB410113F0004FD3
:100180004FEA03334CEA133302D0524263EB43038A
:1001900094EA050F00F0A780A4F10104D5F1200E28
:1001A0000DDB02FA0EFC22FA05F2801841F1000183
:1001B00003FA0EF2801843FA05F359410EE0A5F157
:1001C00020050EF1200E012A03FA0EFC28BF4CF088
:1001D000020C43FA05F3C01851EBE37101F000453E
:1001E00007D54FF0000EDCF1000C7EEB00006EEB4B
:1001F0000101B1F5801F1BD3B1F5001F0CD34908D5
:100200005FEA30004FEA3C0C04F101044FEA44522B
:1002100012F5800F80F09A80BCF1004F08BF5FEAB2
:10022000500C50F1000041EB045141EA050130BD92
:100230005FEA4C0C404141EB0101013C28BFB1F5A4
:10024000801FE9D291F0000F04BF01460020B1FAEF
:1002500081F308BF2033A3F10B03B3F120020CDAC2
:100260000C3208DD02F1140CC2F10C0201FA0CF0A0
:1002700021FA02F10CE002F11402D8BFC2F1200C05
:1002800001FA02F120FA0CFCDCBF41EA0C019040BB
:10029000E41AA2BF01EB0451294330BD6FEA040404
:1002A0001F3C1CDA0C340EDC04F11404C4F12002EF
:1002B00020FA04F001FA02F340EA030021FA04F301
:1002C00045EA030130BDC4F10C04C4F1200220FA58
:1002D00002F001FA04F340EA0300294630BD21FA96
:1002E00004F0294630BD94F0000F83F4801306BF5C
:1002F00081F480110134013D4EE77FEA645C18BF50
:100300007FEA655C29D094EA050F08BF90EA020FE6
:1003100005D054EA000C04BF1946104630BD91EADE
:10032000030F1EBF0021002030BD5FEA545C05D1E1
:100330004000494128BF41F0004130BD14F5800420
:100340003CBF01F5801130BD01F0004545F0FE4194
:1003500041F470014FF0000030BD7FEA645C1ABFC9
:10036000194610467FEA655C1CBF0B46024650EA00
:10037000013406BF52EA033591EA030F41F400212C
:1003800030BD00BF90F0000F04BF0021704730B5B2
:100390004FF4806404F132044FF000054FF0000187
:1003A00050E700BF90F0000F04BF0021704730B548
:1003B0004FF4806404F1320410F0004548BF40421D
:1003C0004FF000013EE700BF42004FEAE2014FEA72
:1003D00031014FEA02701FBF12F07F4393F07F4F4D
:1003E00081F06051704732F07F4208BF704793F050
:1003F0007F4F04BF41F40021704730B54FF4607463
:1004000001F0004521F000411CE700BF50EA010265
:1004100008BF704730B54FF000050AE050EA01020E
:1004200008BF704730B511F0004502D5404261EB7E
:1004300041014FF4806404F132045FEA915C3FF4BF
:10044000D8AE4FF003025FEADC0C18BF03325FEA5C
:10045000DC0C18BF033202EBDC02C2F1200300FA0D
:1004600003FC20FA02F001FA03FE40EA0E0021FA32
:1004700002F11444BDE600BF70B54FF0FF0C4CF420
:10048000E06C1CEA11541DBF1CEA135594EA0C0FD2
:1004900095EA0C0F00F0DEF82C4481EA030621EA0D
:1004A0004C5123EA4C5350EA013518BF52EA033548
:1004B00041F4801143F4801338D0A0FB02CE4FF0FA
:1004C0000005E1FB02E506F00042E0FB03E54FF02A
:1004D0000006E1FB03569CF0000F18BF4EF0010E22
:1004E000A4F1FF04B6F5007F64F5407404D25FEA1E
:1004F0004E0E6D4146EB060642EAC62141EA5551D1
:100500004FEAC52040EA5E504FEACE2EB4F1FD0C12
:1005100088BFBCF5E06F1ED8BEF1004F08BF5FEA90
:10052000500E50F1000041EB045170BD06F0004642
:1005300046EA010140EA020081EA0301B4EB5C04EF
:10054000C2BFD4EB0C0541EA045170BD41F48011E7
:100550004FF0000E013C00F3AB8014F1360FDEBF0C
:10056000002001F0004170BDC4F10004203C35DAE8
:100570000C341BDC04F11404C4F1200500FA05F36B
:1005800020FA04F001FA05F240EA020001F000420C
:1005900021F0004110EBD37021FA04F642EB060182
:1005A0005EEA430E08BF20EAD37070BDC4F10C04AC
:1005B000C4F1200500FA04F320FA05F001FA04F270
:1005C00040EA020001F0004110EBD37041F100015C
:1005D0005EEA430E08BF20EAD37070BDC4F1200567
:1005E00000FA05F24EEA020E20FA04F301FA05F2CF
:1005F00043EA020321FA04F001F0004121FA04F277
:1006000020EA020000EBD3705EEA430E08BF20EA46
:10061000D37070BD94F0000F0FD101F00046400080
:1006200041EB010111F4801F08BF013CF7D041EA02
:10063000060195F0000F18BF704703F00046520006
:1006400043EB030313F4801F08BF013DF7D043EAD7
:100650000603704794EA0C0F0CEA135518BF95EA8D
:100660000C0F0CD050EA410618BF52EA4306D1D114
:1006700081EA030101F000414FF0000070BD50EA33
:10068000410606BF1046194652EA430619D094EABD
:100690000C0F02D150EA013613D195EA0C0F05D1A7
:1006A00052EA03361CBF104619460AD181EA0301FB
:1006B00001F0004141F0FE4141F470014FF00000B3
:1006C00070BD41F0FE4141F4780170BD70B54FF04E
:1006D000FF0C4CF4E06C1CEA11541DBF1CEA1355CE
:1006E00094EA0C0F95EA0C0F00F0A7F8A4EB0504B0
:1006F00081EA030E52EA03354FEA013100F08880A7
:100700004FEA03334FF0805545EA131343EA12636F
:100710004FEA022245EA111545EA10654FEA002624
:100720000EF000419D4208BF964244F1FD0404F5DD
:10073000407402D25B084FEA3202B61A65EB030539
:100740005B084FEA32024FF480104FF4002CB6EBF6
:10075000020E75EB030E22BFB61A754640EA0C0076
:100760005B084FEA3202B6EB020E75EB030E22BFB6
:10077000B61A754640EA5C005B084FEA3202B6EBF7
:10078000020E75EB030E22BFB61A754640EA9C00B6
:100790005B084FEA3202B6EB020E75EB030E22BF86
:1007A000B61A754640EADC0055EA060E18D04FEA44
:1007B000051545EA16754FEA06164FEAC30343EAE4
:1007C00052734FEAC2025FEA1C1CC0D111F4801FB1
:1007D0000BD141EA00014FF000004FF0004CB6E7AA
:1007E00011F4801F04BF01430020B4F1FD0C88BF49
:1007F000BCF5E06F3FF6AFAEB5EB030C04BFB6EB54
:10080000020C5FEA500C50F1000041EB045170BD46
:100810000EF0004E4EEA113114EB5C04C2BFD4EB73
:100820000C0541EA045170BD41F480114FF0000EF7
:10083000013C90E645EA060E8DE60CEA135594EA73
:100840000C0F08BF95EA0C0F3FF43BAF94EA0C0F76
:100850000AD150EA01347FF434AF95EA0C0F7FF4EB
:1008600025AF104619462CE795EA0C0F06D152EA3F
:1008700003353FF4FDAE1046194622E750EA410623
:1008800018BF52EA43067FF4C5AE50EA41047FF434
:100890000DAF52EA43057FF4EBAE12E74A0011D2E6
:1008A00012F5001211D20DD56FF47873B3EB6252CA
:1008B0000ED44FEAC12343F0004343EA505323FAD6
:1008C00002F070474FF00000704750EA013002D14B
:1008D0004FF0FF3070474FF00000704780F000404D
:1008E00002E000BF81F0004142001FBF5FEA410308
:1008F00092EA030F7FEA226C7FEA236C6AD04FEA08
:100900001262D2EB1363C1BFD2184140484041404C
:10091000B8BF5B42192B88BF704710F0004F40F4FE
:10092000000020F07F4018BF404211F0004F41F41A
:10093000000121F07F4118BF494292EA030F3FD0E6
:10094000A2F1010241FA03FC10EB0C00C3F12003F9
:1009500001FA03F100F0004302D5494260EB400088
:10096000B0F5000F13D3B0F1807F06D340084FEAF3
:10097000310102F10102FE2A51D2B1F1004F40EBE8
:10098000C25008BF20F0010040EA03007047490050
:1009900040EB0000013A28BFB0F5000FEDD2B0FAED
:1009A00080FCACF1080CB2EB0C0200FA0CF0AABF10
:1009B00000EBC25052421843BCBFD04018437047AE
:1009C00092F0000F81F4000106BF80F400000132B4
:1009D000013BB5E74FEA41037FEA226C18BF7FEA8B
:1009E000236C21D092EA030F04D092F0000F08BFCD
:1009F0000846704790EA010F1CBF0020704712F0B4
:100A00007F4F04D1400028BF40F00040704712F1F2
:100A100000723CBF00F50000704700F0004343F057
:100A2000FE4040F4000070477FEA226216BF08468D
:100A30007FEA23630146420206BF5FEA412390EA50
:100A4000010F40F4800070474FF0000304E000BF46
:100A500010F0004348BF40425FEA000C08BF7047F7
:100A600043F0964301464FF000001CE050EA0102BB
:100A700008BF70474FF000030AE000BF50EA0102D0
:100A800008BF704711F0004302D5404261EB4101BD
:100A90005FEA010C02BF84460146002043F0B643E2
:100AA00008BFA3F18053A3F50003BCFA8CF2083A07
:100AB000A3EBC25310DB01FA02FC634400FA02FC10
:100AC000C2F12002BCF1004F20FA02F243EB020017
:100AD00008BF20F00100704702F1200201FA02FC79
:100AE000C2F1200250EA4C0021FA02F243EB02006C
:100AF00008BF20EADC7070474FF0FF0C1CEAD052B0
:100B00001EBF1CEAD15392EA0C0F93EA0C0F6FD070
:100B10001A4480EA010C400218BF5FEA41211ED04E
:100B20004FF0006343EA501043EA5111A0FB01313A
:100B30000CF00040B1F5000F3EBF490041EAD3710F
:100B40005B0040EA010062F17F02FD2A1DD8B3F18B
:100B5000004F40EBC25008BF20F00100704790F0FA
:100B6000000F0CF0004C08BF49024CEA502040EA4C
:100B700051207F3AC2BFD2F1FF0340EAC250704712
:100B800040F400004FF00003013A5DDC12F1190F50
:100B9000DCBF00F000407047C2F10002410021FAC2
:100BA00002F1C2F1200200FA02FC5FEA310040F1DA
:100BB000000053EA4C0308BF20EADC70704792F053
:100BC000000F00F0004C02BF400010F4000F013A8B
:100BD000F9D040EA0C0093F0000F01F0004C02BF86
:100BE000490011F4000F013BF9D041EA0C018FE7F5
:100BF0000CEAD15392EA0C0F18BF93EA0C0F0AD0FB
:100C000030F0004C18BF31F0004CD8D180EA010020
:100C100000F00040704790F0000F17BF90F0004FB9
:100C2000084691F0000F91F0004F14D092EA0C0F9B
:100C300001D142020FD193EA0C0F03D14B0218BF2E
:100C4000084608D180EA010000F0004040F0FE4074
:100C500040F40000704740F0FE4040F44000704710
:100C60004FF0FF0C1CEAD0521EBF1CEAD15392EA8F
:100C70000C0F93EA0C0F69D0A2EB030280EA010C7F
:100C800049024FEA402037D04FF0805343EA111118
:100C900043EA10130CF000408B4238BF5B0042F176
:100CA0007D024FF4000C8B4224BF5B1A40EA0C001B
:100CB000B3EB510F24BFA3EB510340EA5C00B3EB4D
:100CC000910F24BFA3EB910340EA9C00B3EBD10F3B
:100CD00024BFA3EBD10340EADC001B0118BF5FEA8D
:100CE0001C1CE0D1FD2A3FF650AF8B4240EBC250B6
:100CF00008BF20F0010070470CF0004C4CEA502077
:100D00007F32C2BFD2F1FF0340EAC250704740F4C5
:100D100000004FF00003013A37E792F0000F00F0B7
:100D2000004C02BF400010F4000F013AF9D040EA35
:100D30000C0093F0000F01F0004C02BF490011F4C9
:100D4000000F013BF9D041EA0C0195E70CEAD153C1
:100D500092EA0C0F08D142027FF47DAF93EA0C0FA8
:100D60007FF470AF084676E793EA0C0F04D14B028C
:100D70003FF44CAF08466EE730F0004C18BF31F03E
:100D8000004CCAD130F000427FF45CAF31F0004338
:100D90007FF43CAF5FE700BF42000ED2B2F1FE4FDE
:100DA0000BD34FF09E03B3EB126209D44FEA00233A
:100DB00043F0004323FA02F070474FF00000704701
:100DC00012F1610F01D1420202D14FF0FF307047A2
:100DD0004FF00000704700BF53B94AB9002908BF5F
:100DE00000281CBF4FF0FF314FF0FF3000F06CB90E
:100DF000ADF1080C6DE904CE00F006F8DDF804E072
:100E0000DDE9022304B070472DE9F047089E0D4646
:100E100004468E46002B40F082808A42174646D90F
:100E2000B2FA82F24AB1C2F1200105FA02F320FAC5
:100E300001F1974041EA030E94404FEA1748230C12
:100E4000BEFBF8FCB9B208FB1CEE43EA0E430CFBF8
:100E500001F098420AD9FB180CF1FF3580F0168199
:100E6000984240F21381ACF1020C3B441B1AA4B22D
:100E7000B3FBF8F008FB103344EA034400FB01F134
:100E8000A14209D93C1900F1FF3380F00181A14250
:100E900040F2FE8002383C44641A40EA0C400021D3
:100EA0001EB1D4400023C6E90043BDE8F08702B973
:100EB000FFDEB2FA82F2002A4FD1CB1B4FEA174E67
:100EC0001FFA87F80121B3FBFEFC250C0EFB1C3337
:100ED00045EA034508FB0CF3AB4207D97D190CF139
:100EE000FF3002D2AB4200F2E7808446ED1AA3B293
:100EF000B5FBFEF00EFB105543EA054408FB00F875
:100F0000A04507D93C1900F1FF3302D2A04500F2F9
:100F1000D7801846A4EB080440EA0C40C0E78B4297
:100F200008D9002E00F0AF800021C6E90005084670
:100F3000BDE8F087B3FA83F100294BD1AB4202D36D
:100F4000824200F2B780841A65EB030301209E46BB
:100F5000002EAAD0C6E9004EA7E7C2F1200C01FA84
:100F600002F3974020FA0CF04FEA174E21FA0CFCDE
:100F70001843BCFBFEF1050C0EFB11CC1FFA87F8E1
:100F800045EA0C4501FB08F3AB4204FA02F409D927
:100F90007D1901F1FF3C80F08B80AB4240F28880EC
:100FA00002393D44EB1A85B2B3FBFEF00EFB103361
:100FB00045EA034500FB08F3AB4207D97D1900F170
:100FC000FF3C71D2AB426FD902383D44EB1A40EA84
:100FD000014178E7C1F1200C8B4022FA0CF71F4346
:100FE00020FA0CF405FA01F34FEA174E25FA0CF536
:100FF0001C43230CB5FBFEF91FFA87F80EFB1955AD
:1010000043EA054509FB08FAAA4502FA01F200FA8B
:1010100001F308D97D1909F1FF3047D2AA4545D916
:10102000A9F102093D44A5EB0A05A4B2B5FBFEF007
:101030000EFB105544EA054400FB08F8A04507D90B
:101040003C1900F1FF352DD2A0452BD902383C4484
:1010500040EA0940A4EB0804A0FB02894C45C646BF
:101060004D4619D316D05EB1B3EB0E0264EB050406
:1010700004FA0CFCCA404CEA0202CC40C6E9002447
:101080000021BDE8F087314630460EE7AC46EDE67C
:10109000184601E74345E6D2B8EB020E69EB0705B7
:1010A0000138E0E72846D3E760468FE78146BAE794
:1010B000614677E708464BE7ACF1020C3D4415E783
:1010C00002383C4426E700BF704700BF0000000024
:1010D0002DE9F84F4848DFF84CB108F0BCFD0FF29D
:1010E0001019D9E900894FF0FF324FF0FF33434820
:1010F000434F444D07F036FA434808F0ACFD4349EE
:10110000434A09680023B1F5617F138016463B808E
:10111000BA460ADC1C460133092B35F8130080B2AD
:1011200025F81400F6D189B26982002135F8110042
:101130003388013103449BB20A293380F6D11388E6
:101140009BB2B3FBF1F31380108880B2FFF72AF94A
:1011500042464B46FFF790F9FFF7A0FB2D4A80B2BD
:10116000002310801C463088B2F800C035F81310F8
:101170001FFA8CFC89B21CFA80F0884216DD308898
:10118000B2F800C035F8131080B21FFA8CFC89B297
:10119000A0EB0C00884209DA35F81300BAF8001009
:1011A000014489B20134AAF80010A4B201330A2B19
:1011B000D9D1CCB13D88ADB2B5FBF4F5164B40F6B4
:1011C000B8301D606843FFF743FC5946FFF748FD00
:1011D000FFF7E2FD2A4683B22146104808F03BFDA6
:1011E0000F4807F07BF97EE72546E7E7AFF300807D
:1011F0009A9999999999B93F5AAE0000200900200F
:10120000261000200E1000206AAE00008409002085
:101210002410002022100020880900207FAE00004A
:101220003809002000C07F44014B01221A6070473A
:10123000EC080020014B01221A607047F0080020E2
:10124000014B01221A607047F4080020014B012273
:101250001A607047F808002012F4406F2DE9F0473B
:10126000D0E901A9D0F8108005460E46144610D0EA
:1012700093050ED419491A4A1A484FF43B7308F0E3
:10128000EAFC194808F0E7FC15484FF43B7108F0F8
:101290000BFCDAF800300127B7401F4224F48054D9
:1012A0000ED112490E4A0F4840F2FD2308F0D3FC3C
:1012B0000F4808F0D0FC0A4840F2FD2108F0F4FB8A
:1012C000D8F8003023EA0707C8F80070D9F80030D2
:1012D000224631462846BDE8F04718473EAC00009C
:1012E00014AC000083AC0000A0AC0000DBAC00003C
:1012F00019AD000043682DE9F0411B688768D0F8FC
:10130000108001268E401E4204460D460ED1104923
:10131000104A114840F29D2308F09DFC0F4808F048
:101320009AFC0C4840F29D2108F0BEFBD8F8003032
:101330001E42BE6929462046B44618BF4FF400330A
:10134000BDE8F04108BF4FF480234FF4A03260475E
:10135000DBAC000014AC000083AC000019AD000051
:101360002DE9F04129482A4E2A4FDFF8D08086B077
:1013700008F071FC4FF0FF334FF0FF32304607F0BA
:10138000F1F8384608F067FC234D1422002101A82B
:1013900008F0C7FC0223CDE9035302930A238DF81A
:1013A00014301E4B186860B91D4808F054FC4FF00B
:1013B000FF341C48214608F04EFC1B4807F08EF80D
:1013C000D8E7836801A95B689847044640B10146A5
:1013D000164808F040FCECE7154808F03CFCECE748
:1013E0002C88B4F5806FF7D2124B40F6B8301C60F1
:1013F0006043FFF72DFB4146FFF732FCFFF7CCFCC3
:10140000214682B20C4808F026FCD6E72BAD00003E
:10141000080900203BAD00000C100020B00800209F
:1014200050AD00009FAD0000200900207FAD0000FE
:10143000C8AD000084090020E3AD000000C07F4477
:101440002DE9F8432648274FDFF8B480DFF8B49041
:1014500008F001FC4FF0FF324FF0FF33384607F041
:1014600081F8404608F0F7FB1F4B1B6840F6B83088
:101470005843FFF7EDFA4946FFF7F2FBFFF78CFC04
:1014800080B2B0F5617644BF6FF45D73C618361153
:10149000764206F1640525EAE575642DA8BF64254A
:1014A0002946124802F028F96336114908D30B681F
:1014B000AB4212DA013C24EAE474642CA8BF642431
:1014C00023462A4609680B4808F0C5FB0A4B32221E
:1014D0001A600A4807F002F8BCE7C8BF0134EAE71F
:1014E00006AE000038090020880900202BAE00005D
:1014F000B000002039AE00008C0900205009002007
:1015000016AE000000C07F442DE9F04F3E4887B082
:1015100008F0A1FB3D4805F0C1F8044628B93C4855
:1015200008F099FB07B0BDE8F08F3A4808F093FB4C
:101530000D214FF4D0522046FFF78EFE011E03DA34
:10154000354808F088FBEDE7344805F0A7F8044675
:1015500008B93348E4E7334808F07DFB4FF0FF3229
:101560004FF0FF33304806F0FDFF304808F073FBC2
:101570002F4B1D6846F2A8177D436423B5FBF3F596
:10158000A36804AA5B680D2120469847804618B1DD
:101590006FF004012748D4E7DDE90463A6FB07AB3D
:1015A00007FB03BB244A0393504600235946FFF729
:1015B00013FC224B4FF0FF325B4508BF524581467A
:1015C00002D26FF08501E5E7039B1B4AA5FB066786
:1015D00005FB0377304600233946FFF7FDFB174A2A
:1015E0004FF0FF31BA4208BFB1420346E9D3A268C7
:1015F000CDF8008015680D214A462046A8470146CF
:101600000028ABD0C6E700BFA4AE0000B4AE000017
:10161000BBAE0000DCAE0000F9AE000025AF00005C
:101620002BAF00004CAF00005009002066AF000057
:101630008C0900207BAF000040420F003F420F00AA
:1016400038B50B780C46062B3CD8DFE803F00409CC
:101650000B1D1F2139001C48BDE8384008F0FBBABB
:101660001A48F9E71A481B4D08F0F5FAA3681A4919
:10167000E2681944284608F049FBE3680022EA546E
:10168000164B01221A6038BD1548E5E71548E3E717
:10169000154808F0E0FA154B186883680E49DC68B5
:1016A0003C224FF47A73A04701460028EBD0104843
:1016B00008F0D1FABDE838404FF0FF3002F014B81E
:1016C0000C48C9E70C48C7E7A0AF0000B6AF000060
:1016D000CFAF0000A010002064100020800900207F
:1016E000E4AF000001B000001FB000007C09002042
:1016F00039B0000061B000007AB000001B4B1A68DE
:1017000002F5FA7210B41A601A68B2F57A7F184AB4
:1017100006DB1168013111601968A1F57A71196051
:1017200013683B2B134B05DD1968013119601168F3
:101730003C391160196810483B2905DD0168013109
:10174000016019683C3919600168172906DD0B4CE6
:10175000216801312160196818391960116810BCBD
:101760001A680368064808F076BA00BFE40800204B
:101770000409002000090020FC080020E8080020DF
:1017800091B000002DE9F84F534808F064FA08F0D2
:1017900080FF4FF47A730A46A0FB030103FB02119A
:1017A000C30B43EA4143CA0B13F5FA74DFF86081B7
:1017B0004A4FDFF8609142F100050126404608F0EB
:1017C0004AFAFFF79BFF3B68012B1DD14A4644496B
:1017D000444800233B6001F0A1FF434B4148D3F84C
:1017E00000A008F077FA0246DAF808303D49D3F84D
:1017F00004B050464FF0FF33D847014620B1BDE852
:10180000F84F3A4808F027BA86B3394B1A68012ACC
:1018100004BF00261E60374806F060FE08F039FF5E
:101820004FF47A730A46A0FB030103FB0211C20BBB
:1018300042EA4142CB0BA24273EB0501BEDAA4EBB4
:10184000020C2CEAEC7C4FF4004E40F2E730002111
:101850004FF47A720023CEFB0C01FFF7BDFA06F0BD
:10186000D1FC14F5FA7445F10005A7E7224ADFF828
:10187000A8A01368012B08BF1660204A08BF1E46A7
:101880001368012B06D1DAF800300A3BCAF80030A1
:10189000002313601A4A1368012B06D1DAF80030CE
:1018A0000A33CAF8003000231360DAF80030632BE3
:1018B0000DDD6423CAF80030DAF80010114808F092
:1018C000CAF9114BDAF800201A601048A4E7002B7F
:1018D000F2DC0023EEE700BFBEB00000800900206C
:1018E000E3B00000281000207C090020F4B00000C4
:1018F000EC08002008090020F0080020F40800206F
:10190000F808002015B100008C09002050090020C3
:10191000CEB00000A0100020B000002010B52E486E
:1019200004F0BCFE04464FF488720B21FFF794FCD0
:101930004FF488720C212046FFF78EFC4FF488721A
:1019400018212046FFF788FC19214FF488722046A1
:10195000FFF782FC011E04DA2048BDE8104008F0C1
:101960007AB90B212046FFF7C5FC0C212046FFF772
:10197000C1FC18212046FFF7BDFC19212046FFF7C6
:10198000B9FC014608B11648E7E71649164B4B600B
:1019900020464FF400638B6008F07EF81349144B27
:1019A0004B6020464FF480538B6008F075F8114966
:1019B000114B4B6020464FF080738B6008F06CF841
:1019C0000E490F4B4B6020464FF00073BDE81040AE
:1019D0008B6008F061B800BFB4AE00001FB100001A
:1019E00046B10000B408002029120000C008002001
:1019F00035120000CC08002041120000D808002059
:101A00004D12000038B52148214C04F047FE2060FB
:101A100028B91E491F48BDE8384008F01CB91E48C7
:101A200008F019F9206883685B6A23B9BDE838407B
:101A30001A4808F010B91A4998475830F6D020686B
:101A400083681B6833B1174900229847014620B1CB
:101A50001548E0E76FF05701FAE7206883681349FB
:101A6000DD683C224FF47A73A847014608B110485C
:101A7000D1E7206883680F495C684D224FF0FF333F
:101A8000A047014608B10C48C5E738BD7DB100004C
:101A90007C09002084B10000B0B10000CAB1000090
:101AA000D8A9000041160000FAB10000641000201F
:101AB00039B00000F8010020F4B00000F0B589B0A2
:101AC0004148424C04F0EAFD206010B9404808F05B
:101AD000C2F8206883683F491B689847014610B1E7
:101AE0003D4808F0B8F83D4B0125DD60FFF716FFD3
:101AF000FFF788FF00212A46394808F0ABFD002196
:101B00002A46384808F0A6FD00212A46364808F043
:101B1000A1FD00212A46354808F09CFD002600273B
:101B20000024CDE90667CDE90354CDE90144304BEB
:101B3000304900944FF480622F4806F01BFE2F4B73
:101B400018602F4B2F490094CDE90667CDE9035467
:101B5000CDE901444FF480622B4806F00BFE2B4B7D
:101B600018602B4B2B490094CDE90667CDE903544F
:101B7000CDE901444FF48062274806F0FBFD274B76
:101B80001860274B27490094CDE90667CDE9035437
:101B9000CDE901444FF48062234806F0EBFD234B6E
:101BA0001860234B23490094CDE90667CDE903541F
:101BB000CDE901444FF480621F4806F0DBFD1F4B66
:101BC000186009B0F0BD00BF25B20000B0080020C9
:101BD0002BB200000CAC00004CB2000000700040C2
:101BE00008090020200900203809002050090020A1
:101BF00085170000A0120020B8020020680900200C
:101C000061130000C0160020380300206C0900207A
:101C1000D1100000E01A0020B80300207009002055
:101C200041140000001F0020380400207409002027
:101C30000915000020230020B804002078090020A6
:101C40002DE9F04F91B08B46029092461C4600253C
:101C50009AF8000008B928465EE325280AF1010732
:101C600007D0029B594698470028C0F2558301359A
:101C700010E2182200210AA808F053F89AF801305F
:101C8000252B78D0002294461646964610463946B3
:101C900017F8013B2B2B00F09D8000F29480202B45
:101CA00000F09B80232B00F09A8028B19DF8300033
:101CB00040F004008DF83000BEF1000F05D09DF813
:101CC000300040F008008DF830002EB19DF8300053
:101CD00040F010008DF83000BCF1000F05D09DF8E9
:101CE000300040F020008DF830002AB19DF83020FF
:101CF00042F040028DF830209DF8302002F0440080
:101D0000442803D16FF386128DF830209DF83020DF
:101D10002A2B42F080028DF830207BD19DF83120B3
:101D200042F001024B1C8DF831201A782E2A9DF8C2
:101D300031200CBF0121002161F341028DF83120D7
:101D400074D15A782A2A6AD0013300210A2618460B
:101D500010F8012BA2F13007092F40F28E809DF878
:101D600030200E91C2F3400040EAD17161F341028C
:101D70008DF830205AE00AF102078DF833309DF8D3
:101D80003130D90740F1498154F8049BB9F1000F73
:101D900007DA9DF8302042F004028DF83020C9F1B6
:101DA00000095A0740F1428154F8048BB8F1000F42
:101DB00080F241819DF831306FF341038DF831306D
:101DC0004FF0FF3837E12D2B0CD0302B7FF46DAF67
:101DD00001225CE74FF0010E59E7012657E74FF06B
:101DE000010C54E7012052E70CFB0202303A334663
:101DF0001E4616F8010BA0F13007092FF4D99942BD
:101E000093D09DF830100D92D20F62F341018DF8FE
:101E100030108AE70B4600224FF00A0CE8E79DF8E5
:101E2000312042F004028DF8312002331F4617F8AA
:101E3000012B6C2A41D025D8682A2BD06A2A46D09B
:101E40004C2A4CD01F4617F8012B9DF831308DF8E5
:101E50003320782A00F2D980572A4DD8412A03D05E
:101E6000453A022A00F2D1809DF83230042262F312
:101E700002038DF8323001239EE006FB0121303948
:101E8000034664E7742A26D07A2ADBD19DF83130E4
:101E900006220DE05A78682A9DF8312006D10121EA
:101EA00061F3C6028DF831209F1CCCE71346022255
:101EB00062F3C6038DF83130C5E75A786C2A9DF875
:101EC000312001D10421EBE713460322F0E79DF80E
:101ED00031300522ECE79DF831300722E8E7BDF804
:101EE000303023F4F04323F0020343F4804343F003
:101EF0000203ADF83030A6E7A2F15801202900F224
:101F0000848001A050F821F0CD1F00000B200000BC
:101F10000B2000000B2000000B2000000B20000015
:101F20000B2000000B2000000B200000691E0000A9
:101F30000B200000CD1F00008D1F0000691E000057
:101F4000691E0000691E00000B2000008D1F0000AC
:101F50000B2000000B2000000B2000000B200000D5
:101F6000D51F0000CD1F0000F11F00000B20000056
:101F70000B200000F11F00000B200000CD1F00000F
:101F80000B2000000B200000CD1F00009DF8321038
:101F9000012003F0780360F30201402B8DF832102A
:101FA00002BF9DF8301041F001018DF83010632A16
:101FB00031D1003B18BF01239DF83020C2F340010E
:101FC0000B4363F341028DF83020D8E69DF83210C0
:101FD0000220DEE79DF8322003F07803A3F14000F1
:101FE000032161F3020243428DF832204341E3E7CB
:101FF0009DF83220032113F0780F61F302028DF86F
:10200000322014BF01230023D6E79DF8303043F07F
:1020100001038DF830300023CEE79DF93020002AEF
:10202000B4BFDDF834904FF0FF39BAE69B077FF577
:10203000C7AEDDF838809DF831200023CDE90D339F
:102040009DF8323003F00703012BC2F3C30236D1EF
:10205000D31E042B20D8DFE803F00307071F1F005F
:1020600054F8040BC11704E0073424F00704F4E823
:102070000201CDE90A019DF8303013F0030654D077
:1020800002983B465246594607F060FD0028C0F2D0
:1020900043810544BA46DBE554F8040B012A4FEAB4
:1020A000E071CDE90A0105D19DF828300A9300239B
:1020B0000B93E0E7022ADED1BDF92800D2E7022B1C
:1020C00023D1D31E042B13D8DFE803F0030A0A122E
:1020D000120020680A900021231D0B911C46CAE7BC
:1020E000073424F00703F3E80201CDE90A01F5E71C
:1020F00054F8043B0A93012A4FF000030B93D3D00A
:10210000022AB8D1BDF82830D0E7042B07D1073414
:1021100024F00704F4E80201CDE90A01ABE7032B40
:1021200004BF54F8043B0A93A5E79DF833007828D0
:10213000B0D8622822D825283FF493AD5828A9D1D9
:102140000DF126030093DDE90A0104AB0CAA07F0A8
:10215000B2FC8246B8F1000F0DF126000CDB9DF8B1
:102160003020A0EB0A036FF3861298458DF83020DB
:1021700002D9A8EB03030D9380463DE06338152890
:1021800088D801A151F820F0092200006D2200003A
:10219000952000009520000095200000952000006B
:1021A0006D22000095200000952000009520000081
:1021B00095200000CB220000992200009D22000003
:1021C0009520000095200000E121000095200000EE
:1021D000992200009520000095200000992200001F
:1021E000B8F1000FDDF828A00ADB4146504607F0A1
:1021F00078FD0AEB00080026BAF1000F0CD149E780
:10220000504607F067FDF4E70A9B8DF81030002672
:102210000DF111080DF1100AA8EB0A0306B1013304
:102220009DF83220D0066BD5023352060D9948BF77
:102230000E9A0B4448BF9B18B9F1000F79DD9DF849
:102240003020A9EB0309C2F380030393530770D432
:10225000500664D546B1029B59463046984700283F
:102260005ADB039B01351E46302359E01E0711D46B
:1022700013F0100618BF2026DDE90A23002A73F1A7
:102280000001BFF65DAF524263EB4303CDE90A2381
:102290002D2655E72B26EFE7002651E70A9848B38D
:1022A0000DF1260300930CAA04AB002107F003FCF8
:1022B000BDF8323003F0EF0343F4F04343F0100372
:1022C0008246ADF83230002644E70A9B072A3FF6E3
:1022D000E1AEDFE802F00D04060D08080D0D1D70DB
:1022E000D8E61D80D6E62846E917C3E90001D1E605
:1022F0001D60CFE6DFF8C4800646A8F1050A8BE72B
:10230000110748BF013390E7184603935946029BD3
:1023100098470028039B04DA11B0BDE8F08F202312
:102320004D444A46002AA5EB090109F1FF39EBDCCF
:102330000D4636B1029B5946304698470028EBDBE4
:1023400001359DF83230D90601D41A0706D5029B13
:102350005946302098470028DEDB01359DF83230A1
:10236000DB0607D59DF83300029B594698470028A5
:10237000D2DB01350D9E2E44731B002B16DC029818
:1023800043465246594607F0E1FB0028C4DB0544AA
:10239000A944A9EB0503002B7FF77CAE029B5946AD
:1023A000202098470028B7DB0135F2E7029B594609
:1023B000302098470028AFDB0135DDE780B2000010
:1023C000436803F00303022B70B504460E46816098
:1023D00010D0032B04D0012B0FD10025284601E09B
:1023E000056800200023636010B1314604F0ECFD65
:1023F000284670BD00680025F4E7064A06490748EC
:10240000452307F028FC0348452107F04DFB002534
:10241000E7E700BF81B2000081AC000083AC0000A0
:10242000014807F0A7B900BFE0A9000008B5D0B186
:102430004368042B11D100220368BFF35B8F53E87C
:10244000001F012903D143E800200028F7D1BFF382
:102450005B8F074808BF104608BD3BB1006804F019
:1024600075FC0020F8E76FF4E040F5E70148F3E77A
:10247000E98FFFFFEA8FFFFF10B5044618B90D4B37
:102480000D485B689847616808290DD031F0040356
:102490000AD011F0020108D00848214604F0F2FAEF
:1024A000002323600023636010BD2068142207F01E
:1024B00038FCF7E798010020A4B200009009002042
:1024C00010B5044618B9164B16485B689847636800
:1024D000042B23D0082B21D0CBB92368BBB91248D9
:1024E0004FF0FF324FF0FF33214604F05FFA08B996
:1024F00023681BB90A4B0D485B6898472068142273
:10250000002107F00EFC636843F00203636020685B
:1025100008F06BF8636843F00103636010BD00BF0F
:1025200098010020A4B2000090090020CAB2000067
:1025300008B508B34368042B10D101220368BFF328
:102540005B8F53E8001F002903D143E800200028D7
:10255000F7D1BFF35B8F0BD1002008BD53B10068EA
:102560004FF0FF324FF0FF3304F0F0FA0028F3D0C1
:102570000348F2E70348F0E76FF4E040EDE700BFFF
:10258000E98FFFFFEA8FFFFF08B5064906484023A1
:10259000142208F00EF8BDE808400449044807F08A
:1025A0004BB900BFB009002090090020F8A9000035
:1025B000E8A900002DE9F04FB0F81C9085B019F0A3
:1025C000080F0446039222D001290CBF49F01009DC
:1025D00049F02009A0F81C901434204606F0B6F902
:1025E00068B99F4A9F49A048AC2307F034FB9F4835
:1025F000214607F030FB9A48AC2107F055FA039BBF
:1026000083F31188BFF36F8F05B0BDE8F08F984F4B
:10261000DFF8548209F00709022906D1204607F0A5
:10262000C4FA0028D8D0012868D1D4F818B0A38BF8
:10263000BBF1000F0ADA0026256823F00703C4E97E
:10264000006643F00103A383019627E003F007022D
:10265000511F012934D8002123F00703062A2568D9
:102660009BB2C4E900110CD18D422A4638BF0A46FC
:102670002AB1E18B12680131E183002AF8D143F0DD
:102680000203A383204607F090FA06460028DBD019
:10269000A38B43F02003A38300230193A38B03F0B8
:1026A00007024A45029203D0A268002A40F0F08057
:1026B0001DB9019A002A00F036814FF00009E9E0C7
:1026C000042A0ED123F007039AB2A283204607F012
:1026D0006CFA054618B142F02002A283002501954C
:1026E000DCE74046634940F21B133A4607F0B3FA71
:1026F00040F21B11384607F0D7F9EFE7032835D130
:10270000B9F1000F0BD05C4940464FF4AB733A4629
:1027100007F0A1FA4FF4AB71384607F0C5F923680A
:102720005BB95649404640F257133A4607F093FAD0
:1027300040F25711384607F0B7F923691B68019337
:102740005BB94F4940464FF4AD733A4607F083FA00
:102750004FF4AD71384607F0A7F9A38B23F00703B8
:1027600043F00603A3830025AB4697E7042832D144
:10277000B9F1020F0BD04349404640F25D133A468F
:1027800007F069FA40F25D11384607F08DF9E38BE6
:102790005BB13D4940464FF4AF733A4607F05BFAF0
:1027A0004FF4AF71384607F07FF923695B680193F6
:1027B0005BB93349404640F261133A4607F04BFAA1
:1027C00040F26111384607F06FF9A38B23F007033D
:1027D00043F00403C6E7052832D1B9F1010F0BD04D
:1027E0002A4940464FF4B2733A4607F034FA4FF4A0
:1027F000B271384607F058F923685BB91F49404663
:1028000040F265133A4607F026FA40F26511384661
:1028100007F04AF923699B6801935BB91849404660
:102820004FF4B4733A4607F016FA4FF4B4713846D1
:1028300007F03AF9A38B23F0070343F0050391E770
:102840000C4940F26B133A46404607F004FA002563
:1028500040F26B11384607F027F9019584E700BF75
:102860009AB30000C0B3000083AC0000D7B30000EF
:10287000F7B2000081AC000019B3000025B30000DE
:1028800048B300005FB3000075B3000084B30000DC
:102890004FF0010943F0080304F1140AA3835046E2
:1028A00006F054F868B93A4A3A49AC23404607F072
:1028B000D2F93948514607F0CEF93548AC2107F036
:1028C000F3F8039B83F31188BFF36F8FB9F1000F07
:1028D00038D1002D4BD1019B13B130492046984788
:1028E0004FF02003EFF3118B83F31288BFF36F8F48
:1028F0005046CDF80CB006F01BF868B9244A2849B8
:102900008123404607F0A7F92648514607F0A3F96E
:102910001F48812107F0C8F8504606F027F8A38B1E
:1029200023F00803A383A38BDA0628D523F0100332
:10293000A3830121B4F81C9009F0070900297FF452
:102940006BAE49E6A1680029C3D00B68029A002B40
:1029500038BF002399464B6820461E465B46B04769
:10296000B9F1000FB5D0D9F800304946EEE7294655
:10297000029A2D685B46204607F033F9A9E713F069
:1029800020011EBF23F02003A3830221D2E700BF52
:102990009AB30000C0B30000D7B30000A92900001B
:1029A000ECB3000001B40000F8B504460D4600F198
:1029B00014064FF02003EFF3118783F31288BFF35F
:1029C0006F8F304605F0B4FF68B90C4A0C490D48CA
:1029D000812307F040F90C48314607F03CF90748DD
:1029E000812107F061F8304605F0C0FFA5613A4645
:1029F00020460121BDE8F840FFF7DCBD9AB3000096
:102A0000ECB3000083AC000001B400002DE9F047F6
:102A100004460F4607F0FBF8051E5EDB04F11409BF
:102A20004FF02003EFF3118A83F31288BFF36F8F07
:102A3000484605F07DFF68B9384A3949394881234D
:102A400007F009F93848494607F005F9334881216C
:102A500007F02AF8484605F089FFE38BA28B4FF672
:102A6000FF718B4202F0070650D0022E24D10133B1
:102A7000E38335464FF00108484605F067FF68B923
:102A8000264A2A492748AC2307F0E5F82848494652
:102A900007F0E1F82148AC2107F006F88AF3118825
:102AA000BFF36F8FB8F1000F17D0002332463946BD
:102AB000204607F096F810E0930701D0062E0FD1BC
:102AC00000233B606368F3B9C4E900773546FEB97B
:102AD000524602212046FFF76DFD2846BDE8F087EB
:102AE000052E18D0012E0BD012490E48124A40F282
:102AF000C91307F0B0F8104840F2C91106F0D4FF2E
:102B00006FF0040504E01F606760DFE76FF00A05FF
:102B10004FF00008B0E76FF08505F9E79AB30000C1
:102B2000ECB3000083AC000001B40000C0B30000AF
:102B3000D7B3000084B30000F7B200002DE9F843DA
:102B400005464FF02003EFF3118683F31288BFF39D
:102B50006F8F234805F0ECFE68B9224A22492348CA
:102B6000812307F078F81E49214807F074F81D48C2
:102B7000812106F099FF1A4805F0F8FE1D4B1C68EC
:102B8000002C38BF00249CB11B4FDFF878804FF039
:102B90000C09D4E90132002D08BF13462BB198F877
:102BA000142009FB02F2B85C98472468002CF0D18D
:102BB0000B4805F0CBFE68B90A4A10490B48AC2314
:102BC00007F049F806490E4807F045F80548AC21DA
:102BD00006F06AFF86F31188BFF36F8FBDE8F883B4
:102BE000B00E00209AB30000ECB3000083AC0000EC
:102BF00001B40000B40E0020C00E0020C0B30000DD
:102C0000D7B30000980F002000F01F0301229A4064
:102C10000A4BBFF35B8F400903EB800050E8003F95
:102C200043EA020140E8001CBCF1000FF6D1BFF3FB
:102C30005B8F1A4214BF012000207047CC0E002089
:102C400030B51D4B1D7DBFF35B8F05F01F030122C7
:102C50009A401A4B690985B0D04303EB810353E8CE
:102C6000001F01EA000443E8004CBCF1000FF6D15C
:102C7000BFF35B8F114217D0114C0C2202FB0542AF
:102C800007CA01AB83E807000E4A7AB193E8070050
:102C900007F063F80020FFF751FF0C236B4300227D
:102CA000E118E250C1E9012205B030BD82F311887C
:102CB000BFF36F8FEEE700BF980F0020BC0E00201F
:102CC000C00E00205B9D00002DE9F041374BDFF87E
:102CD000F4801C7D88B007462046FFF795FF60B959
:102CE0006E463A462146304606F0C2FF96E8070097
:102CF0000C2505FB048585E807000C23634308EBDE
:102D0000030218F80300650904F01F06C8B37B1C12
:102D10000FD0D2F808E02648264A4FF4004C002194
:102D20000023ECFB0E01FEF757F80121381A05F0DD
:102D3000DFFF04F0ADFA0120FFF700FFBFF35B8F68
:102D40001D4B0122B24003EB850353E8001F1143E2
:102D500043E800100028F8D1BFF35B8F0C2303FB7E
:102D6000048494E8070005AB83E80700134A1AB10E
:102D700093E8070006F0DEFFFFF762FF04F0CCFFE8
:102D800001200F4ABFF35B8F0123B340DB4302EB0B
:102D9000850555E8002F1A4045E800210029F8D1A3
:102DA000BFF35B8F08B0BDE8F08100BF980F002033
:102DB0003F420F0040420F00BC0E0020359D000036
:102DC000CC0E0020C00E00200B6801330B60014BBD
:102DD0001B681847D4000020014B1860704700BFE3
:102DE000D400002007B50B4600210246019103489C
:102DF00001A9FEF725FF03B05DF804FBC92D000013
:102E000008B54FF02002EFF3118382F31288BFF36D
:102E10006F8F00F0DFFC034806F01DFF00F00AF89A
:102E2000FCE700BF19B40000014910220A60704796
:102E300010ED00E072B6404080F31188BFF36F8F51
:102E4000BFF34F8F30BF62B6BFF36F8F704700BFC5
:102E500072B6494081F3118820BF80F3118862B6B1
:102E6000704700BF01B572B60B4A906900281EBFBB
:102E70000021916107F096FB62B6EFF30580A0F1A7
:102E800010004FEAC0000549014409C99847BDE850
:102E90000140034908470000980F002024A80000C3
:102EA000C930000030BFFFF7FDBF00BF12498A687C
:102EB0004FF030001044EFF3098C80E8F01F202021
:102EC00080F31288BFF36F8F0C4F4FF00066CA6912
:102ED0008A603E60906F0023936780F3118804B589
:102EE000104600F0E7FABDE8044002F1300090E837
:102EF000F01F8CF309887047980F002004ED00E064
:102F00001EF0040F0CBFEFF30880EFF30980816916
:102F100011F8021C0229FFD001B506F0BAFE01BD6E
:102F200043B2002B08DB012200F01F0002FA00F080
:102F30005B09024A42F82300704700BF00E100E04D
:102F4000054B420900F01F0053F82220012303FA29
:102F500000F01040704700BF00E100E070B54C1C6D
:102F6000072C05460E460FD9114A1249124859231B
:102F700006F071FE1148314607232A4606F06BFE23
:102F80000B48592106F090FD6BB2002BACBF03F14A
:102F900060430B4B4FEA4414B8BF05F00F05E4B291
:102FA000AABF03F561435C5583F8004370BD00BFC1
:102FB00042B4000078B4000083AC000093B4000079
:102FC00014ED00E00B4A08B50B4B22F07F029A602B
:102FD000BFF34F8FBFF36F8FD3F8882022F47002B6
:102FE000C3F8882003F02AFC06F050FB00F0F6F945
:102FF00003F02EFC0000000000ED00E0094A0A4941
:1030000093680968D967094998674B6843F080530A
:103010004B60002383F31188BFF36F8F9368D86FE1
:10302000704700BF980F002080AB000000ED00E06B
:1030300042F8203C009B42F81C3C0A49019B42F8A4
:10304000183C029B42F8143C21F001014FF08073C0
:1030500042F8043C42F8081C0023203A02658367CA
:10306000704700BF7B9C00000B4A0346906890B1FC
:1030700013F1160F806E05D0A0F120029A4206D8F7
:10308000834204D281422CBF0021012100E00021B3
:10309000002908BF00207047980F002008B5094B91
:1030A00098600D46144600F005FA204685F309881D
:1030B000002163B681F31188BFF36F8F00220023D4
:1030C00006F0DBFD980F0020044B9968D869884210
:1030D00003D003494FF080520A607047980F0020D8
:1030E00004ED00E0EFF30880EFF3098101B57246CB
:1030F00000F0AEF801BD00BF002080F31488BFF3DC
:103100006F8F07F0FDFA00200D490860BFF34F8F65
:103110000C4880F3088800F07DF9202080F31188A6
:1031200009484FF40261401880F30988EFF31480D6
:103130000221084380F31488BFF36F8FFFF742FF2B
:1031400094ED00E0402B0020C02C0020234B70B5F4
:1031500015469A6A9A6A9A6A044690071AD5586B75
:103160009A6A120616D519B19A6A22F080029A62FA
:103170009A6A9A6A9A6AD6060FD49B6A99070CD4FF
:103180000024164A936A43F0FF03936200232B70D6
:10319000204670BD6FF01500EAE7104E73681A05FF
:1031A000EED52146FFF760FF044618B180F3098889
:1031B0000224E6E7B36ADB06E2D5094A09490A4870
:1031C00040F2491306F047FD084806F044FD044864
:1031D00040F2491106F068FCD3E700BF00ED00E0C3
:1031E000D3B400000DB5000083AC000057B500005B
:1031F0000D4B9A6A9A6A9A6A920508D59A6B9A6AEE
:10320000120404D518B19A6A22F400429A62064B5D
:103210009A6A9A6AD20558BF9A6A9A6A002042F45A
:103220007F429A620870704700ED00E0074B9A6A8F
:103230009A6A9A6A9A6A9A6A9A6A9A6A6FEA0242D9
:103240006FEA12429A620020704700BF00ED00E072
:1032500070B5544B5C688AB00D46C4F30804002670
:1032600086F31188BFF36F8F02F07F43B3F17F4F76
:1032700008D102F00C03082B04D012075CBF0546EE
:1032800001267DB9484A4949494840F2F23306F0DF
:10329000E2FC484806F0DFFC434840F2F23106F019
:1032A00003FC002500238DF80730E31E032B72D8A2
:1032B000DFE803F002696D493A4BDC6A14F002045E
:1032C00069D1DA6A002A18DBDB6A5B004ED5AB698C
:1032D00033F8022C4DF602739A420DD003F160438D
:1032E00003F626631B780BB30DF107020121284674
:1032F000FFF72CFF044600E02C689DF807309BB9CF
:103300002022294602A806F001FD099B002E44D088
:10331000C3F3080222B96FEA53236FEA43230993E8
:1033200002A9204606F0B3FC0AB070BD224B1B7800
:103330002BB10DF107010120FFF75AFFDAE71F4B10
:103340001B889BB213B1FFF771FFD3E71C49164AE4
:10335000174840F2C32306F07EFC1A4806F07BFCB7
:1033600040F2C321104806F09FFBC6E714490E4AFD
:103370000F4840F2C72306F06EFC134806F06BFCC2
:1033800040F2C721EEE70DF107020021AFE70DF192
:1033900007010020D0E70024AFE723F4FF7323F0F8
:1033A0000103BCE700ED00E0D3B400007AB50000F3
:1033B00083AC00008DB5000029ED00E02AED00E0AF
:1033C00081AC0000CBB50000EFB50000024A5369A4
:1033D00043F010035361704700ED00E00448002300
:1033E0002021C2180133302B82F80013F9D1704725
:1033F00000E100E0064A11680023C1F307211846E6
:103400008B4200D17047936010610133F8E700BF31
:1034100090ED00E008B572B6002383F31388FFF740
:10342000E9FF144B4FF0FF32C3F88020C3F884202B
:10343000C3F88820C3F88C20C3F89020C3F89420E8
:10344000C3F89820C3F89C20C3F88021C3F88421D6
:10345000C3F88821C3F88C21C3F89021C3F89421C4
:10346000C3F89821C3F89C2162B6BFF34F8FBFF316
:103470006F8F08BD00E100E0064B9B68834207D1D7
:10348000EFF3058323B1044A536843F0805353603C
:1034900004F006BF980F002000ED00E0024B034A45
:1034A0000348012100F068B800000420000000205B
:1034B0000CAA0000826E054B203A1A60044A2021B3
:1034C000C3E901121846012100F07EB8D00E002099
:1034D00000000B15F0B51E4F00268E4201DB104692
:1034E000F0BD446884B353B104F1FF3C14EA0C0FFF
:1034F00018D11F2C16D905681CEA050F12D1202CF3
:103500000568D0F808C0D2B20FD9B4F1004F0ED878
:10351000013CB4FA84F4C4F11F046400072A4CEAA5
:10352000040406D96FF01502D9E70824F6E73E2413
:10353000F4E725F01F05154345F0100544F001049C
:10354000BA60FD6001323C6101360C30C5E700BF56
:1035500090ED00E0034B05225A60BFF34F8FBFF39D
:103560006F8F704790ED00E0BFF35F8F014B00223B
:103570005A60704790ED00E038B50E4D01232A786F
:103580000C46FFF7A7FF2870163011D140F2111337
:10359000094A0A490A4806F05EFB2146094806F036
:1035A0005AFBBDE83840044840F2111106F07CBADD
:1035B00038BD00BFDC1000201FB6000081AC000049
:1035C00083AC000056B6000010B5124A00231278F2
:1035D0000C46FFF77FFF10F1160F08D00E4B0022AC
:1035E000072800DD10BD98601A610130F8E70B4A2A
:1035F0000B490C484FF4987306F02DFB21460A48FE
:1036000006F029FBBDE8104004484FF4987106F01D
:103610004BBA00BFDC10002090ED00E01FB60000A8
:1036200081AC000083AC000082B60000254910B5D3
:103630000C68082C13D94FF4A473234A2349244857
:1036400006F009FB23480822214606F004FB1E4829
:103650004FF4A47106F028FA4FF0FF3010BDFFF7C9
:1036600083FF48681C490022944200F10C0019D1E4
:103670001A4B1C70FFF76EFF0B68C3F30723082B70
:103680000ED01749104A12484FF4D47306F0E3FAEB
:10369000144806F0E0FA0C484FF4D47106F004FA2E
:1036A0000020DBE78A6050F80C3C23F01F03134333
:1036B00043F01003CB6050F8043C43F001030B616E
:1036C0000132D1E718AA00001FB6000081AC00004B
:1036D00083AC0000AFB6000090ED00E0DC100020ED
:1036E000E3B6000033B7000008B5024806F0B3FAAD
:1036F000FEE700BF54B700000FB407B504AB0221CA
:1037000053F8042B04480193FEF79AFA03B05DF8CE
:1037100004EB04B0704700BFD19C00000EB40FB59D
:1037200005AB6FF0004153F8042B0290039106485B
:10373000019302A9FEF784FA029B00221A7004B0DA
:103740005DF804EB03B07047B19C0000014B1860BA
:10375000704700BFD80000200239012902D8034B6E
:103760001B6818474FF0FF30704700BFD80000209B
:103770004FF02003EFF3118183F31288BFF36F8FB3
:103780000F4A0123C2F840354FF08042C2F8783525
:103790000C4A1268082A08D10B4A1268052A04D874
:1037A0000A48825C0AB10A4A13604FF08043012242
:1037B000C3F8802581F31188BFF36F8F0020704715
:1037C00000E00140300100103401001069B7000032
:1037D000380600404FF08043C0B2C3F81C05BFF369
:1037E0004F8F0549054BCA6802F4E0621343CB6072
:1037F000BFF34F8F00BFFDE700ED00E00400FA05C6
:1038000020B1034B800143F001031847704700BF0C
:10381000D0A90000054A0123C2F8003508B1D360E1
:1038200070471360024A1360704700BF0070004089
:1038300004700040087970B500F01F04072C1FD8F1
:103840000B78092B1CD8DFE803F006060606061BDA
:10385000051E1B2005234A78032A18D0042A0FD1FD
:1038600000254A8844F20A06B24244D011D844F2F4
:103870000306B2423BD044F20506B24239D0D2B37D
:103880006FF0150032E00623E5E70723E3E70125A3
:10389000E7E744F21406B2422FD044F22806B242BF
:1038A0002DD044F20F06B242EAD10322C0F34010F9
:1038B0001B0243EA005343EA053343EA0243220171
:1038C00002F1804202F5E0420020C2F818352301DF
:1038D00003F1804303F5E0438A79C3F81425C3F864
:1038E0001005084B1C444B7984F8A83070BD0022A9
:1038F000DCE70122DAE70222D8E70422D6E7052234
:10390000D4E700BF00000020F7B50546406810B9B5
:103910006FF015009CE030F0FF02F9D1574C584F82
:10392000114620FA02F313F0010333D0BB1893F8C9
:10393000A8C0BCF1000FEBD004EB021E6E7CDEF8D9
:103940001835003E18BF012623F0807343EA066352
:10395000CEF8183502F151031B01013144F803C0C0
:10396000C9B20132082ADCD12B7C083B062BCFD808
:1039700001A252F823F000BF5D3A000011390000A7
:103980009F39000011390000553A0000113900003C
:10399000593A000002F151063601A351E1E7012234
:1039A000364B0129C3F8F0256A7C59D9002AAFD1DA
:1039B000C3F8F4252A684B0012B1928902FB033345
:1039C000EA689A4256D32D4BAA68C3F82C262F4694
:1039D000C3F830160FCF2A4C04F17C060FC63B68A3
:1039E00033602B6800262667002B3CD00FCB04F1F8
:1039F000900585E80F00E567A4F8A06098B3BFF3D1
:103A00005B8F54E8003F44E80062002AF9D1BFF31D
:103A10005B8F1C48D4F890601B4A4FF4004500218E
:103A20000023E5FB0601FDF7D7F90022CDE90001EF
:103A3000002304F1080005F07BFB94F87830BBB953
:103A400012484FF0FF324FF0FF3304F08BFD206F30
:103A500003B0F0BD0222A3E70322A1E700229FE703
:103A6000082AA5D954E794F88E00FFF7D3FEE4E7BF
:103A70000020EDE76FF00B00EAE700BF00700040A8
:103A8000000000203F420F0040420F00580000207D
:103A900070B50C4616460D4D4FF0FF324FF0FF3318
:103AA00005F1400004F05EFD0123204685F87830E2
:103AB0006E67FFF729FF95F87830044603B110B11F
:103AC000034804F00BFD204670BD00BF000000203D
:103AD000400000200D4B10B500241C601B680C4BEF
:103AE0001C601B680B4B1222C3F804230720FFF74E
:103AF00017FA224601210720FFF730FA0648836CA7
:103B000013B9403004F0EAFC002010BD04710040FD
:103B1000107100400070004000000020344B1A6813
:103B200010B5002A55D000221A601B68314C324B68
:103B300001211960C3F8F824E36FDBB3D4F89430A3
:103B400043B1B4F8A02004F17C019847012814D0B7
:103B5000022829D0B4F8A030B4F89C209A4223D986
:103B60000133A4F8A030254BD3F82C26D3F8341613
:103B700089B202EB4102C3F82C26D4F890302BB95D
:103B800094F88E00BDE81040FFF744BEBFF35B8F92
:103B900054E8003F5A1E44E800210029F8D1BFF341
:103BA0005B8F012BECDC10BDD4F8903013B11448BE
:103BB00006F081FD94F878304BB1606F10B10021B0
:103BC00003F002FA0F48BDE8104004F087BC0E482D
:103BD000F9E70E4B19680029E5D01A60064A1B6800
:103BE0000123136042F8083C42F8043CDBE700BFC5
:103BF0000471004000000020087000400070004088
:103C000008000020400000205800002010710040F3
:103C100038B50C460C4D4FF0FF324FF0FF3305F135
:103C2000400004F09FFC0023204685F878306B6745
:103C3000FFF76AFE95F87830044603B110B10348E7
:103C400004F04CFC204638BD00000020400000205D
:103C50002DE9F041104C071BC7F347174FF00C0834
:103C600008FB07F8064608F148000D4620444021AD
:103C700006F095F8011E09DB084B4444C4E91035F1
:103C8000074B53F83730BDE8F041184730462B4614
:103C9000BDE8F041184700BFEC0E0020019E000077
:103CA00060AA000038B5CCB2012C054609D90949F3
:103CB00009480A4A792305F0CEFF0848792105F022
:103CC000F3FE2B690C2104FB0134A06C00F007000B
:103CD00038BD00BFACB7000083AC00006FB7000078
:103CE000F8B5CCB2012C0769054616460BD9184920
:103CF0001848194A40F24D1305F0ADFF164840F23E
:103D00004D1105F0D1FE4FF02003EFF3118283F344
:103D10001288BFF36F8F0C2303FB0471896C11F0C1
:103D2000C00101D08E4210D103FB047301219964BC
:103D3000002082F31188BFF36F8F28B9696801EB07
:103D4000C404636898470020F8BD4FF0FF30F0E7E7
:103D5000ACB7000083AC00006FB7000070B50D4633
:103D60000649411A0446491105484022FFF7B8FFA9
:103D70002B4601462046BDE870401847EC0E002057
:103D80007CA70000002270B5012104461046FFF711
:103D9000E5F80020FFF7C4F80F4801F09DFB0F4B3A
:103DA000984215D101F0BCFB26690D49304605F05B
:103DB0003DFF00280BDB0125B5642469084904F1A7
:103DC000200005F033FF002801DB6565002070BD91
:103DD0006FF00400FBE700BF193E00000000AD0BD0
:103DE00070AA000001460C2309484B4370B5C41863
:103DF000D4E91056002248332264184405F0EDFF40
:103E00002DB132462B460348BDE87040184770BDBF
:103E1000EC0E00207CA70000012808B506D003287E
:103E200008D0A8B9104B9B6C5B071BD1BDE80840BC
:103E3000FFF7D8BF0D490E4A0E4840F25E2305F049
:103E40000AFF40F25E21BDE80840094805F02CBE9B
:103E50000649074A074840F2622305F0FCFE40F29B
:103E60006221F0E708BD00BFEC0E002081AC00002D
:103E70006FB7000083AC000008B54FF02003EFF3EC
:103E8000118183F31288BFF36F8F124A136843F0D6
:103E9000020013F0010310600CD04FF08042D2F802
:103EA0000C34D2F80C2413F0010303D00A4805F0B7
:103EB00094FF012381F31188BFF36F8F23B1BDE815
:103EC00008400020FFF78EBFBDE80840012001F048
:103ED00047BB00BF440F0020340F0020094BBFF345
:103EE0005B8F53E8002F22F0020143E80010002806
:103EF000F7D1BFF35B8FD30702D4012001F084BB5D
:103F0000704700BF440F00207FB500220123CDE998
:103F1000022304ABCDE90433094ACDF800D06B4647
:103F2000CDF804D005F07EFF002805DB4FF4804279
:103F30000023684604F016FB07B05DF804FB00BFE1
:103F40001F9E00002DE9F8434949BFF35B8F0546EA
:103F5000012251E8003F41E800200028F9D1BFF3D9
:103F60005B8FA3B9434944484B60CB608A60FEF73E
:103F70004DFD00280BDA41494148424A4FF408738D
:103F800005F069FE3F484FF4087105F08DFDADB3B3
:103F90006B1E012B56D8012D07D14FF08043D3F86B
:103FA0001C3403F00303012B28D006F063FB044606
:103FB00018B9354B1B78002B52D14FF02003EFF38B
:103FC000118683F31288BFF36F8F01242F4FDFF820
:103FD000C480DFF8C4904FF08042D2F81834D2F891
:103FE0001824D2030CD503F00303012B01D0012DBB
:103FF00006D10CB386F31188BFF36F8FBDE8F88349
:10400000ACB13046FEF724FF4FF08042D2F81835AD
:10401000002BE0D139680029DDD03B603B680123EB
:10402000C2F81835C8F88031C9F80030D3E700214C
:10403000212004F0E7F8E7E74FF080430222C3F8BD
:104040000423DBE712490E480E4A40F2322305F002
:1040500002FEBDE8F8430B4840F2322105F024BDD2
:104060004FF080430222C3F808230646AEE700BFA4
:10407000480F0020DC0E00200C0F0020D0B70000FD
:1040800083AC00006FB70000DD1000200401004089
:1040900081AC000000E100E00800004008B5084BDA
:1040A0000848186006F074FA38B10748FFF74EFB6D
:1040B0000548FEF791FE002008BD6FF01200FBE7F7
:1040C0004C0F0020DCA70000CD4000000A2838B5C6
:1040D000074D044604D1286883680D21DB699847A1
:1040E00028688368E1B2DB699847204638BD00BF85
:1040F0004C0F002070B5056916460C4661B922497F
:10410000224A2348242305F0A6FD224805F0A3FDFA
:104110001E48242105F0C8FC636863B91E491B4A88
:104120001B48252305F097FD1C4805F094FD174812
:10413000252105F0B9FC6B685BB100229C4213D1CC
:1041400023685AB9AA686B60944200D1AB6000231F
:10415000236076B9002070BD0B46EFE71360AB68B3
:104160009C4208BFAA60F2E719681A460029F3D1F9
:104170003EB16B682360A8686C600028EAD1AC602F
:10418000E9E76FF01500E6E70CB80000DFB70000C4
:1041900083AC000015B8000024B8000036B8000059
:1041A00043092DE9F04703D0012B36D0BDE8F08755
:1041B0001B4F3B695C68002CF8D02568DFF86C80E9
:1041C000DFF86C90DFF86CA000F01F000126002DD6
:1041D00006FA00F638BF0025A3681E4214D06368B3
:1041E00063B9494645234246504605F034FD0D4823
:1041F00005F031FD4521404605F056FCD4E9013279
:104200002146324038469847002DCFD02B68002BEE
:1042100038BF00232C461D46DEE7034FC9E700BF29
:1042200094A7000036B80000ACA70000DFB700007C
:104230004DB8000083AC00007FB54068057B01F0FD
:104240001F04B2F5005F44EA45144FF0000504D1A5
:10425000204601F071FD002054E0B2F5804FCDE919
:10426000025551D1B3F5003F0CBF042305238DF84F
:104270000830836823FA01F111F0010155D1B2F53C
:10428000A03F52D166094AD04FF6FF73012E08BFF6
:10429000194604F01F05E940CA070BD42B492C48E6
:1042A0002C4A40F2292305F0D6FC2A4840F2292165
:1042B00005F0FAFB6EB1012E34D027492448254A77
:1042C00040F22E2305F0C7FC224840F22E2105F0D3
:1042D000EBFB4FF0A04305F5E07553F82530DB0705
:1042E00023D40DF107052946204601F04FFC1B4B56
:1042F000984219D1284601F0A9FC194B984213D0D5
:104300006FF00B0004B070BDB3F5C02F05D0B3F54E
:10431000003F0CBF02230123A9E70323A7E74FF0C7
:10432000FF31B6E70F4BD6E703950023194602AAE3
:10433000204601F00DFB0A4B984204D10121204692
:1043400001F08AFC87E76FF00400DBE78CB800001F
:1043500083AC000059B8000081AC00000400AD0B34
:104360000000AD0B0003005010B501F05FFC0446E7
:1043700068B901F033FC084B98420AD1074821463E
:1043800001F0FEFB224605210620FEF7E7FD002096
:1043900010BD6FF00400FBE70000AD0BA141000071
:1043A0002DE9F04347683B7B01F01F0585B00E46C1
:1043B00045EA43151446CAB902A9284601F0E6FBAE
:1043C0000446284601F0DAFC484B984204D06FF0CE
:1043D000040005B0BDE8F083844205D19DF80800D3
:1043E00001F02EFCA042F2D10020F2E74FF00009CC
:1043F0000DF103013046CDE9029901F0C7FB4B46B0
:10440000804602AA4946284601F0A2FA374B984254
:1044100002D06FF01500DCE7804503D19DF8030062
:1044200001F00EFCA3054ED5314B324A2340934296
:104430003AD00CD8062B14D004D893B1022BE8D173
:1044400004230EE0B3F5801FE3D1012309E02A4ADB
:1044500093422BD0B3F5A00F2AD0B3F5800FD8D15B
:1044600002238DF8043084F48073C3F30023E00644
:104470008DF8053054BFC4F34013032321058DF894
:10448000063017D57B68012101FA06F6C3F80865E6
:10449000002201A9284601F003FB144B984214BFE7
:1044A0006FF01500002094E70723DAE70523D8E72B
:1044B0000323D6E7620541BF7B68012101FA06F6B6
:1044C000C3F80C65E4E7E3064FF0000354BFC4F300
:1044D000401403241A4601A928468DF8044001F02F
:1044E00037FA024B98423FF47FAF92E70000AD0BE2
:1044F0000600F00006001000020040000248002103
:10450000C2E90001002070470024F4000246406820
:10451000126938B500F10803043200F10C041946A1
:1045200013F9015B002DB4BF00254FF40045A342F1
:1045300022F8025BF4D100231A4601F0E1FD034B9F
:10454000984214BF6FF00F00002038BD0000AD0B83
:104550000268530910B504462CD0012B4FF6FF73A7
:1045600018BF002302F01F02D340DB070BD414490D
:104570001448154A40F2292305F06DFB124840F219
:10458000292105F091FA236803F01F025B092260DC
:104590000DD0012B11D00D490A480B4A40F22E23B1
:1045A00005F059FB084840F22E2105F07DFA4FF046
:1045B000A04010BD4FF0FF33D4E70548F9E700BF36
:1045C0008CB8000083AC000059B8000081AC00003A
:1045D00000030050F0B54B79012B26D0032B21D1DD
:1045E00010268B79032B1DD1CC790CB1012C19D15C
:1045F0000A7912B1022A15D10E220B684568B3F56B
:10460000164F2D6865D02DD8B3F5165F64D016D837
:10461000B3F5966F62D00AD8B3F5967F61D0B3F543
:10462000167F61D06FF0850052E00026D9E7B3F520
:10463000166F5CD0B3F5965FF4D1374B3CE0B3F521
:10464000E14F57D007D8B3F5615F55D0B3F5964F1A
:10465000E8D1324B30E047F61227BB42E2D14FF4AB
:10466000000329E0B3F5613F48D013D8B3F5963F76
:1046700047D009D84DF6C027BB4244D0B3F5614FAF
:10468000D0D14FF46B0317E0B3F5E13FCAD14FF03F
:10469000EB7311E0B3F5612F38D008D8204FBB423F
:1046A00037D0B3F5E12FBDD14FF0E86304E01D4FE3
:1046B000BB42B7D14FF08053C5F82435036903C915
:1046C000344322430433C5F86C2583E803000020FB
:1046D000F0BD4FF41D03EFE7134BEDE74FF49E23BE
:1046E000EAE74FF4A033E7E74FF41C33E4E74FF475
:1046F0001D23E1E70D4BDFE70D4BDDE74FF06C735A
:10470000DAE70C4BD8E74FF46503D5E74FF0706359
:10471000D2E74FF08063CFE700B0130000A04E0057
:1047200090D0030040420F000050270000C07500E9
:1047300000F03A0000903A012DE9F843144642682F
:10474000D0F810901768127A0546884692B1444A0C
:104750004449454840F27F3305F07DFA434805F06F
:104760007AFA3F4840F27F3105F09EF96FF08500FC
:10477000BDE8F883D9F80C1091F8D220002A6BD14B
:10478000B3F5E87FCB67D2BF5C23052293FBF2F33E
:10479000C1F880300023C1E91884C1E91A330B67DE
:1047A00043685B68DA0624D591F8D1600EB3A6425F
:1047B00028BF264640463246CC3105F0A7FAA41B56
:1047C000B04416D1D9F80C2092F8D1309B1B82F856
:1047D000D1303146284605F05AFCD9F80C1028464D
:1047E0000122603105F06CFC284605F083FC0020B6
:1047F000BEE70023C7F83485C7F83845C7F810313D
:10480000D7F81021C7F84C31D7F84C31D9F80C3013
:10481000012283F8D2206B685B68DB0619D54FF064
:104820002003EFF3118183F31288BFF36F8F2B699D
:10483000DB682BB1D3F8C82042F00202C3F8C820CD
:104840006B681B680822C3F8002581F31188BFF349
:104850006F8F01233B60CAE76FF00F0088E700BF4E
:10486000B6B8000081AC000083AC0000EAB80000DC
:104870000268530910B504462CD0012B4FF6FF7384
:1048800018BF002302F01F02D340DB070BD41449EA
:104890001448154A40F2292305F0DDF9124840F288
:1048A000292105F001F9236803F01F025B0922604A
:1048B0000DD0012B11D00D490A480B4A40F22E238E
:1048C00005F0C9F9084840F22E2105F0EDF84FF047
:1048D000A04010BD4FF0FF33D4E70548F9E700BF13
:1048E0008CB8000083AC000059B8000081AC000017
:1048F000000300502DE9F743D0F804800769D8F889
:1049000000400023C4F8003538604568EB6806466F
:10491000581C13D001A80193FFF7AAFF019A0123A5
:104920009340C0F80835EB68019301A8FFF7A0FF9A
:10493000019B03F5E073032240F823202B69591CE7
:1049400011D02A7F0193002A01A814BF4FF0030958
:104950004FF00009FFF78CFF019B03F5E0734FEA6E
:10496000890240F823206B695A1C13D001A80193D7
:10497000FFF77EFF019A01239340C0F808356B6969
:10498000019301A8FFF774FF019B03F5E073032275
:1049900040F82320AB69581C11D06A7F0193002A8C
:1049A00001A814BF4FF003094FF00009FFF760FFA3
:1049B000019B03F5E0734FEA890240F82320D5E913
:1049C00003122B68C3F80C15C3F81425D5E905129A
:1049D000C3F808153169C3F8102504313046FFF7D4
:1049E000F9FD814600286FD1D8F80430990719D510
:1049F00007F1160001F0C0FA414B98427CD1B87D16
:104A0000C30003F1804303F5F83304F10C0204F50D
:104A10009071C3F81015C3F814253A4A0123834056
:104A2000C2F80435FB68002B52D0736835691B68E7
:104A3000E86835490422C3F804230122C0F8C820DD
:104A4000C3F804130821C3F80015D3F84C11A1B121
:104A50005A60D3F844211AB9D3F82421002AF8D097
:104A60000022C3F84C21D3F84C11C3F81021D3F81D
:104A70001011C3F84421D3F844312449002288306E
:104A800005F00DFEEB68C3F8BC50E8682049002231
:104A9000283005F004FEEB68DD65D8F804309A078D
:104AA0005CBF4FF48072C4F80423DB0644BF4FF4AC
:104AB0008003C4F8043314370023C4F84475C4F8E1
:104AC00048350123A360E360484603B0BDE8F083A6
:104AD0000823C4F8003598F80830002BDDD1C4F85D
:104AE0001031D4F8103107F11503C4F8343501231F
:104AF000C4F838352360D0E76FF00409E4E700BF5D
:104B00000000AD0B00F0014010020A00ABA1000054
:104B100043A30000F8B5066904460F4605F0AAFD58
:104B200010B9284B1B785BBB4FF02003EFF31181CA
:104B300083F31288BFF36F8F20460D4605F090FA7D
:104B4000C8B1F3685BB1DA684AB1D3F8C420002A6F
:104B500005DA62681268D2F84C25C3F8C4203146E1
:104B6000012201F8147F204605F02EFC85F3118800
:104B7000BFF36F8FF8BD81F31188BFF36F8FD3E759
:104B80006425204605F06CFA48B9012005F06BFC5D
:104B9000013DF6D10021212003F034FBF0E74FF076
:104BA0002003EFF3118583F31288BFF36F8F204644
:104BB00005F056FA0028D2D185F31188BFF36F8F24
:104BC000E8E700BFDD100020F7B51C464368066922
:104BD000D3F800C005464FF02003EFF3118783F3AD
:104BE0001288BFF36F8FF068C3683BB187F31188F9
:104BF000BFF36F8F6FF00F0003B0F0BD4FF4800E66
:104C0000C2608160CCF804E301F0604CBCF1005F4D
:104C100028D1C0E9041206F10C01284605F0FAFB80
:104C200087F31188BFF36F8FF37A012B18D1631CC0
:104C300016D00E48F5680E4A24EAE4744FF4004694
:104C400000210023C6FB0401FCF7C6F82835024604
:104C50000B4600200021CDE90001284604F068FA47
:104C60000020C9E7036205F044FBD4E73F420F0090
:104C700040420F0043682DE9F0431D68D5F8081144
:104C800089B0044671B103690022C5F80821D5F83E
:104C90000821DA68D2F8C0300133C2F8C03009B058
:104CA000BDE8F083D5F8243113B3C5F82411D5F845
:104CB0002431D5F88064C5F88064142203A805F077
:104CC00030F80623F0078DF80C3000F10481B107AD
:104CD00000F10381720700F1028106F00806204608
:104CE00003A98DF8106005F0CBF9204605F02DFBE7
:104CF000D5F810317BB3D5F80433DB062BD54FF054
:104D000000082769C5F81081D5F810316368F86884
:104D10001E68012380F8D530883005F0CCFCFA6895
:104D2000D6F83C1592F8D130906E82F8D1801B1ADB
:104D30000B44906F23EAE37108444345906702DD1A
:104D4000204605F0A4F9F96891F8D230002B40F024
:104D5000C88081F8D530D5F84C3193B3D5F810110F
:104D600079BBC5F84C112669D5F84C31142203A83B
:104D700004F0D7FF032303A920468DF80C3005F07B
:104D80007FF9F668F36F5F1C1BD0C6F88430D6F845
:104D90008030DFF834828B4A23EAE3714FF400401D
:104DA0004FF00009C0FB0189002340464946FCF74B
:104DB00013F802460B46CDE9000106F1880004F025
:104DC000B7F9D5F8443133B3D5F810611EBB276964
:104DD000C5F84461F968D5F84431012260312046B4
:104DE00005F06EF9F96801226C31204605F068F98A
:104DF000FB6893F8D220002A00F0A18083F8D260EB
:104E000063685B68D80603D50221204605F04BFA9B
:104E1000204605F06FF9D5F82031DBB1D5F8043321
:104E2000D90517D563681B684FF02001EFF3118295
:104E300081F31288BFF36F8FD3F8201131B10021B5
:104E4000C3F82011D3F820110121D96082F3118811
:104E5000BFF36F8FD5F85831002B3FF420AFD5F852
:104E600004335A027FF51BAF63682669D3E90073E8
:104E7000DB0669D4F3689B68002B3FF410AF4FF05A
:104E80002003EFF3118283F31288BFF36F8FF3686F
:104E9000D3F8C4100029ACBFD3F8C450D7F84C5590
:104EA00082F31188BFF36F8FF06890F8D430002B35
:104EB00057D04FF02003EFF3118583F31288BFF32F
:104EC0006F8F06F10C01204605F0A4FA85F31188D6
:104ED000BFF36F8FE3E6012601E70226FFE6042613
:104EE000FDE600226031204605F0EAF84FF020038D
:104EF000EFF3118183F31288BFF36F8FFB68DA6ED3
:104F0000D2B11A661A6F5A660022C3E91B229A664A
:104F1000D6F84C310BB901233360D6F8003223F0B8
:104F20002003C6F8003281F31188BFF36F8FFB684E
:104F3000002283F8D5200EE701237360F3E71146C2
:104F4000204605F07BF95BE74FF48003C7F8083390
:104F50000121204605F0A7F9F368DB68002B89D111
:104F60009DE6826803699A420BD04269036AAA42AD
:104F70002B4425D1036205F0BCF9002899D1F368D0
:104F80001D6AF068283005F096FB1422002103A862
:104F900004F0C7FEF3689A68CDE90425DA68AD1A13
:104FA00018BF01254FF480028DF80C50C7F8082374
:104FB00000229A60DA6003A9204605F061F86EE6E7
:104FC0001D46DEE740420F003F420F00194970B511
:104FD000044622F07F460868C1E90023A6F50013C5
:104FE000101AB3F5400F4FF000050AD2124B1968A2
:104FF0000A060B0A9219114943F10003C1E9002383
:10500000012503F0C5FEA30003F1804303F58833B7
:10501000D3F84025B2420BD11DB94FF40002C3F8BA
:105020004025074B4FF4803000FA04F4C3F84443A2
:1050300070BD00BF00070020800F0020E8060020A0
:105040000010014010B501238340114ABFF35B8F6C
:10505000DC4352E8001F01EA040C42E800CEBEF136
:10506000000FF6D1BFF35B8F4FF4803202FA00F0ED
:1050700002F1804202F58052C2F80803BFF35F8F4D
:10508000BFF36F8F0B4214BF0120002010BD00BF83
:105090007C0F00200123124ABFF35B8F834052E84C
:1050A000001F194342E8001CBCF1000FF7D1BFF309
:1050B0005B8F0C4A4FF480338340C2F804330A4BB1
:1050C000BFF35B8F1B68BFF35B8F23FA00F0C3074E
:1050D00042BF064B4FF40032C3F80021704700BFB7
:1050E0007C0F002000100140780F002000E100E05C
:1050F0000D4B1B68190A1806BFF35F8F0B4BD3F8D3
:105100000435C01841F10001B3F5801F0AD2084BE5
:10511000D3E90023994208BF904203D210F1807076
:1051200041F10001704700BF800F002000100140D6
:10513000E80600202DE9F04F85B016461F460546CB
:10514000FFF780FF0190FFF7D3FFB94208BFB042DD
:105150007FD2B6EB000867EB010900234FF08072A5
:105160004B4508BF4245C0F08580444B03EB051317
:10517000D3E902239F4208BF964254D04FEA8509E3
:105180004FF4803B09F1804905F150080BFA05F214
:1051900009F588394FEA88081FFA88F80292384AD8
:1051A000D9F8400526F07F4308F1804808F5883893
:1051B0001C469346D2F804A5A0EB0A0020F07F40DD
:1051C0002AF07F410128C9F8401505D10393132027
:1051D00005F061FA2A4A039B02990AF1020CA4EB3A
:1051E0000C0020F07F40B0F5000F88BF644600201F
:1051F000C8F80000D8F80000CBF8441324F07F4032
:10520000C9F84005DBF80405824506D0201A0238AB
:1052100020F07F40B0F5000F19D8E41A24F07F4445
:10522000321947F10003154C290104EB0510C0E9C0
:1052300002230E9A0F9B625043600024019B13B11E
:105240002846FFF727FF204605B0BDE8F08F20462F
:10525000B0E701230B4ABFF35B8FAB4052E8001F5E
:10526000194342E800100028F8D1BFF35B8F3246A3
:105270003B46D8E76FF01504E0E700BFF0060020DA
:1052800000100140780F002073B5194B194D002410
:105290004FF0FF304FF0FF31C5F80845C3E9020178
:1052A0004FF48033C5F80433134B02264FF4003219
:1052B0000121C5F804631120C3F880212246FDF7BF
:1052C0004DFE1120FDF72CFE0C4A012313600C4A01
:1052D0002B6013600B4B0C4A009301940023204673
:1052E000FFF728FF3046FEF72DFE204602B070BDC6
:1052F000F00600200010014000E100E0081001402D
:105300007C0F0020CD4F0000FFFF7F002DE9F74309
:10531000344CD4F804339A0709D5334B1A6832B1A8
:1053200000221A60314A1B681368013313604FF082
:105330002003EFF3118283F31288BFF36F8FD4F849
:105340000433DB0312D5BFF35B8F294B53E8001FF7
:1053500021F0010043E80006002EF7D1BFF35B8F78
:10536000244B002936D11968002933D1002382F358
:105370001188BFF36F8F53B3FFF7BAFE06464FF0A5
:105380002003EFF3118083F31288BFF36F8F1A4B62
:10539000D3E90289494508BF46454FF000021ED3B4
:1053A0004FF0FF364FF0FF37D3E90015C3E902672E
:1053B0001A604FF48033C4F8483380F31188BFF388
:1053C0006F8F21B1009542464B460020884703B0BD
:1053D000BDE8F083002119601B680123C7E711466F
:1053E000EBE700BF0010014004110140800F0020D6
:1053F000780F002040110140F0060020144B13B537
:10540000B0F1FF3F08BF1846441E002C1EDD9C4231
:10541000A8BF1C46FFF76CFE0E4B0F49D3E90023D3
:10542000801AB0F5000F28BF00240130044408485A
:105430000091844228BF044612194FF000000190E9
:1054400043F10003FFF776FE02B010BD0024E1E750
:10545000FFFF7F0000070020CD4F000008B5FFF7D9
:1054600047FE024B1B68C01A08BD00BF00070020A2
:1054700008B578B101281CD0144A154915484FF4D5
:105480004F7304F0E8FB11484FF44F7104F00CFB2C
:1054900000200DE031B14FF08043D3F8183403F011
:1054A00003030B604FF08043D3F81804C0F30040AF
:1054B00008BD31B14FF08043D3F80C3403F0010341
:1054C0000B704FF08043D3F80C04EFE70AB90000EB
:1054D00081AC000083AC000010B5044648B90A490D
:1054E0000A480B4ABD2304F0B6FB0948BD2104F06D
:1054F000DBFA084B1A7922B9012207481C609A800E
:1055000010BD0648FCE700BF7BB9000083AC00007B
:105510003EB90000840F00200000AD0B0C00AD0B65
:1055200008B50B4B1B794BB90A490B480B4AD623DC
:1055300004F091FB0948D62104F0B6FA0020FDF7EB
:10554000FFFC18B9BDE80840FDF7EABC08BD00BF84
:10555000840F002089B9000083AC00003EB9000030
:10556000224B1B7913B504465BB921492148224AD5
:105570004FF4897304F06FFB1F484FF4897104F0F6
:1055800093FA74B1012C27D01B4A1C4919484FF4D7
:10559000A27304F060FB18484FF4A27104F084FA7F
:1055A00016E001A92046FFF763FF4FF0804388B162
:1055B000019A012A0ED1C3F81825114B00221A6056
:1055C0001B684FF080430222C3F8042301229A6033
:1055D00002B010BD0022EEE70A4B00221A601B68E1
:1055E0004FF08043C3F804431C60F1E7840F0020B0
:1055F00089B9000083AC00003EB9000081AC000016
:10560000040100400001004037B52F4D2A790446BF
:105610005AB92E492E482F4A40F24B1304F01BFB77
:105620002C4840F24B1104F03FFA7CB1012C28D0F9
:1056300029492748274A40F2671304F00CFB254804
:1056400040F2671104F030FA03B030BD4FF08043F0
:105650000222C3F80823C3F8044103F58273012230
:105660001B681E4B42F210741A6000210846FFF7B7
:10567000FFFE0028E8D0012004F0F5FE013CF4D143
:10568000E2E74FF080430022C3F80843C3F800214B
:1056900003F580731B68124B1C608DF8074042F2C3
:1056A00010740DF107010120FFF7E2FE10B900238D
:1056B0006B71C9E79DF807000128F8D104F0D3FE0B
:1056C000013CEED1F3E700BF840F002089B9000050
:1056D00083AC00003EB9000081AC00000C0000402B
:1056E00004000040164B07B51A686AB100221A6020
:1056F0001B684FF080430122C3F80823114B5879EF
:1057000010B95A711B6898470F4B1A686AB100208C
:10571000186001A91B68FFF7ABFE019A4FF08043A8
:1057200032B90122C3F818259A6003B05DF804FB72
:105730000222C3F80823034B01201B689847F4E7B3
:1057400000010040840F00200401004070B50125D5
:105750000368B3FA83F2202AC2F11F0414D0BFF306
:105760005B8F05FA04F223EA020250E8006F9E42C2
:1057700004D140E8002CBCF1000FF6D1BFF35B8FE1
:10578000E6D102480C7070BD0148FCE70000AD0B8B
:105790000200AD0B0368CB40DB0710B515D4012325
:1057A00003FA01F10368BFF35B8F41EA030250E89B
:1057B000004F9C4204D140E8002CBCF1000FF6D110
:1057C000BFF35B8FEED1024810BD0248FCE700BF7B
:1057D0000000AD0B0400AD0B054B083033F8100092
:1057E00000F02200A0F1220358425841704700BF48
:1057F0000C01002070B500F108030C4C34F8133094
:10580000DA0505460E4607D5C3F3432304EBC3026E
:1058100054F8333052689847A3682BB1E268314698
:105820002846BDE87040184770BD00BF0C0100203D
:10583000194B083010B533F81020D1051DD5C2F32F
:10584000432122F4F85223F8102003F11004002021
:1058500034F8022B12F4807F03D0C2F3432291422A
:105860000BD001303028F3D1002243F831200B480F
:10587000FFF790FF0A4B984200D110BD09490A4832
:105880000A4A4FF4997304F0E6F9BDE8104007485E
:105890004FF4997104F008B90C0100208001002038
:1058A0000000AD0B0BBA000083AC0000A7B90000EC
:1058B00038B50A4C00F1080534F815309A0606D5BB
:1058C0005B0B074A03F5A273002142F82310FFF790
:1058D000AFFF002324F8153038BD00BF0C010020B5
:1058E0000060004010B50446006804F0BEFD58B9E1
:1058F00012491348134A40F2292304F0ACF9114825
:1059000040F2292104F0D0F8236803F01F025B095C
:1059100022600DD0012B0ED00B490948094A40F2F4
:105920002E2304F098F9074840F22E2104F0BCF829
:105930004FF0A04010BD0548FCE700BF8CB8000048
:1059400083AC000059B8000081AC00000003005097
:10595000F0B5044685B017461D46F1B1FFF73CFF90
:1059600010B14A4805B0F0BD0B46CDE900008DF8F6
:105970000E008DF80F000DF10F020DF10E01204603
:1059800004F088FD424A04F1080132F8113023F096
:10599000020343F0010322F8113097B13C4B3E78EB
:1059A0007A6804F1080033F810108F070CD5002A2C
:1059B000D7D133F8102022F01C0242EA860223F8E5
:1059C0001020CDBB3348CDE721F02001C904C90C1C
:1059D00023F81010002AECD0032EC2D817782EB965
:1059E0002D4A07F5A27142F82160E2E7BA0002F100
:1059F000804202F5C04241EA4731D2F810C52CF08E
:105A0000030CC2F810C5D2F810C52CF44F3C2CF48E
:105A1000407CC2F810C5D2F810E54FEA042C0CF413
:105A20007C5C4EEA064E4CEA0E0C41F0200123F855
:105A30001010C2F810C5BCE7D5E900672046FFF793
:105A4000F7FE002EBED0124D2B689E4204D16B682B
:105A50009F4201D100220AE010480DF10F01FFF72B
:105A600075FE0C4B98427FF47DAF9DF80F2045F8F2
:105A7000326005EBC20308345F6035F8143043EA46
:105A8000422343F4807325F814309BE70400AD0BE8
:105A90000C0100200000AD0B0060004080010020E0
:105AA000F0B5044685B0154609B300F10807314E3C
:105AB00036F81730980701D49A0658D413F01C0F03
:105AC00002D04B78012B52D001238DF80F300023E8
:105AD000CDE900134A1C8B1C20460DF10F0104F088
